:1000000005C100000C9411320C943C320C94673200
:100010000C9492320C94BD320C94E8320C9413334D
:100020000C943E3324C1000022C1000020C1000016
:100030001EC100001CC100001AC1000018C1000050
:1000400016C1000014C1000012C1000010C1000060
:100050000EC100000CC100000AC100000C946933FD
:1000600006C100000C9488370C94BE3700C1000014
:10007000FEC00000FCC00000FAC00000F8C0000094
:10008000F6C00000F4C00000F2C00000F0C00000A4
:100090000C9414380C944A38EAC00000E8C0000000
:1000A000E6C00000E4C00000E2C00000E0C00000C4
:1000B000DEC00000DCC00000DAC00000D8C00000D4
:1000C000D6C00000D4C000000C94C02D0C94A03801
:1000D0000C94D638CCC000000C942C390C946239A6
:1000E000C6C0000000000A0B02090C0D0E08070331
:1000F00004010000000000000000000000000000FB
:1001000000000000000000000000000000000000EF
:1001100012111000000000000000000000000000AC
:100120000000000000000000000001021020200874
:100130000810204010204080020102010804020142
:1001400001020408102040808040201008040201B1
:10015000800402018040201008040201080402010A
:100160000102040810204080010204081020408091
:1001700005050505070508080808020202020A0A23
:100180000808040404040101010101010101030341
:10019000030303030303040707070C0C0C0C0C0CEC
:1001A0000C0C0202020206060606060606060B0BE9
:1001B0000B0B0B0B0B0B000020002300260029006B
:1001C0002C002F003200000100000301060109018C
:1001D00000002200250028002B002E0031003400F2
:1001E00002010000050108010B01000021002400AC
:1001F00027002A002D003000330001010000040117
:1002000007010A01E7377338FF388B3911241FBE05
:10021000CFEFD1E2DEBFCDBF00E00CBF13E0A0E026
:10022000B2E0EEE9F4E700E00BBF02C007900D92E8
:10023000A435B107D9F72CE0A4E5B3E001C01D92C5
:10024000A031B207E1F711E0C6E0D1E000E006C05E
:1002500021970109802FFE010E941C3AC230D1076C
:1002600080E00807A9F70E94B22E0C944D3AC8CE40
:10027000611102C00C94CD356130E1F362E0FACF38
:100280000E94363621E0019709F020E0822F089580
:10029000CF93DF93882349F0EB0181500E947034A3
:1002A00099838883DF91CF910895FB011182108299
:1002B000F9CF0F931F938B019C0183E0369527950F
:1002C000179507958A95D1F7035A1C4F462F47700B
:1002D00021E030E0F90102C0EE0FFF1F4A95E2F77E
:1002E000AF01F80120812423CB010196211102C026
:1002F00090E080E01F910F9108950F931F938B0161
:100300009C0183E036952795179507958A95D1F737
:10031000677081E090E001C0880F6A95EAF7F80104
:10032000E35AFC4F2081452B31F480958223808352
:100330001F910F910895822BFACFCF92DF92EF9207
:10034000FF92CF93DF936B017C0160E086E3C816D8
:10035000D104E104F10490F486E38C0D0E94CD35C4
:10036000E6012196AE01C701B601C7DFCE01DF91DC
:10037000CF91FF90EF90DF90CF9008958C2DEECF2E
:10038000882341F08150682F70E090E080E050E0D9
:1003900040E0B3CF0895FC01A781B0858C91918591
:1003A0008923A481B5819C914081518162817381AF
:1003B0002681922359F081110BC04F5F5F4F6F4F21
:1003C0007F4F408351836283738308958111F5CFFA
:1003D0004150510961097109F4CF87E693E0DBCF01
:1003E00082E793E0D8CF8DE793E0D5CF88E893E01C
:1003F000D2CFFC01A481B5818C9196818923A781FC
:10040000B0859C91408151816281738121859223C5
:1004100059F0882359F04F5F5F4F6F4F7F4F4083F4
:1004200051836283738308958823A9F3415051094E
:1004300061097109F4CF87E693E0DBCF82E793E0AF
:10044000D8CF8DE793E0D5CF88E893E0D2CF0F9354
:100450001F93CF93DF93D82FC62F8A01A0916603F5
:100460008BE0A89FD0011124A959BC4F1D921D9269
:100470001D921C92139781E01A968C931A978D2FD8
:1004800090E0FC01E65DFE4FE4911696EC93169722
:10049000FC01E059FE4FE491F0E0EE0FFF1FEA543B
:1004A000FE4F8591949115969C938E931497862F69
:1004B00090E0FC01E65DFE4FE4911996EC931997EC
:1004C000FC01E059FE4FE491F0E0EE0FFF1FEA540B
:1004D000FE4F8591949118969C938E93179760E0A8
:1004E0008D2F0E94CD3560E08C2F0E94CD358091FC
:1004F0006603813009F43FC0A8F0823009F462C07D
:10050000833009F486C08091660391E0980F909340
:100510006603F801808390E080E0DF91CF911F9126
:100520000F91089580E0D23049F081E0D33031F06E
:100530008EEE8D0F8430D8F487E18D1B41E050E0C2
:100540006DEE71E00E94973180E0C23049F081E0A9
:10055000C33031F08EEE8C0F843058F487E18C1B61
:1005600041E050E06BE172E00E949731CCCF8FEF19
:10057000E5CF8FEFF5CF80E0D23049F081E0D33086
:1005800031F08EEE8D0F8430C8F487E18D1B41E091
:1005900050E060EF71E00E94973180E0C23049F096
:1005A00081E0C33031F08EEE8C0F843048F487E167
:1005B0008C1B41E050E06EE172E0D6CF8FEFE7CFC9
:1005C0008FEFF7CF80E0D23049F081E0D33031F0C7
:1005D0008EEE8D0F8430C8F487E18D1B41E050E032
:1005E00063EF71E00E94973180E0C23049F081E012
:1005F000C33031F08EEE8C0F843048F487E18C1BD1
:1006000041E050E061E272E0AFCF8FEFE7CF8FEFD4
:10061000F7CF80E0D23049F081E0D33031F08EEE78
:100620008D0F8430C8F487E18D1B41E050E066EF08
:1006300071E00E94973180E0C23049F081E0C33020
:1006400031F08EEE8C0F843048F487E18C1B41E052
:1006500050E064E272E088CF8FEFE7CF8FEFF7CF03
:100660009BE0899FF0011124E959FC4F8081918121
:10067000A281B381FB0180839183A283B38390E045
:1006800080E008959BE0899FF0011124E959FC4F17
:10069000108211821282138290E080E0089590E02F
:1006A00080E00895CF93282F8823E1F0CB01BA0191
:1006B000CFEFC20FEC2FF0E0ED56FC4F2081213040
:1006C00059F490580E94B02F9B01AC016C2F70E040
:1006D00090E080E0CF91A2C00E94AB2F8C2FCF91F1
:1006E0000C949334CF9108950F931F938B019C0129
:1006F00083E036952795179507958A95D1F70C5A7B
:100700001C4F462F477021E030E0F90102C0EE0F88
:10071000FF1F4A95E2F7AF01F80120812423CB01A6
:100720000196211102C090E080E01F910F91089581
:100730000F931F938B019C0183E0369527951795A6
:1007400007958A95D1F7677081E090E001C0880F26
:100750006A95EAF7F801EC5AFC4F2081452B31F4F9
:100760008095822380831F910F910895822BFACF69
:100770004F925F926F927F928F929F92AF92BF92B1
:10078000CF92DF92EF92FF920F931F93CF93DF935D
:100790004B015C0129013A01670161E0882D0E944B
:1007A000CD35E4012196AE01C501B401C1DF20E0E1
:1007B00030E0A901C801B6010E942F3118168CF44F
:1007C000F401ED56FC4F81E08083C801B6010E9420
:1007D000B02F6B01C301B2010E94B02FA601C4016A
:1007E00021D0CE01DF91CF911F910F91FF90EF901B
:1007F000DF90CF90BF90AF909F908F907F906F9041
:100800005F904F900895882341F08150682F70E0E9
:1008100090E080E050E040E08BCF0895862FB90152
:100820000C9493349C01FC01EC51FF4FE491E15096
:10083000E231E0F4F0E08827EF5DFB4F8F4F0C943E
:100840001C3A33043A043D045404690436047E041B
:100850008A048E04A504BA04CF04E604FB0436041B
:10086000100527053C0584B5806884BD60E0822FB3
:100870000C94093684B58062F8CF809180008C7F1B
:1008800082608093800080918100807E8061682BEF
:100890006093810050938700409386008091800090
:1008A000806880938000E2CF809180008C7F82609E
:1008B0008093800080918100807E8061682B6093AE
:1008C0008100509387004093860080918000806271
:1008D000E8CF809180008C7F82608093800080913F
:1008E0008100807E8061682B609381005093870037
:1008F00040938600809180008860D3CF8091B000C3
:1009000080688093B0008091B100887F682B6093ED
:10091000B100ACCF8091B0008062F3CF80919000A5
:100920008C7F82608093900080919100807E8061B6
:10093000682B6093910050939700409396008091AC
:10094000900080688093900091CF809190008C7F80
:1009500082608093900080919100807E8061682BFE
:10096000609391005093970040939600809190007F
:100970008062E8CF809190008C7F826080939000AD
:1009800080919100807E8061682B609391005093EC
:10099000970040939600809190008860D3CF80911B
:1009A000A0008C7F82608093A0008091A100807E57
:1009B0008061682B6093A1005093A7004093A6002C
:1009C0008091A00080688093A00050CF8091A0000B
:1009D0008C7F82608093A0008091A100807E8061E6
:1009E000682B6093A1005093A7004093A6008091CC
:1009F000A0008062E8CF8091A0008C7F826080930D
:100A0000A0008091A100807E8061682B6093A1008E
:100A10005093A7004093A6008091A0008860D3CF98
:100A2000809120018C7F8260809320018091210140
:100A3000807E8061682B6093210150932701409351
:100A40002601809120018068809320010FCF809142
:100A500020018C7F82608093200180912101807E23
:100A60008061682B609321015093270140932601F8
:100A7000809120018062E8CF809120018C7F82608C
:100A80008093200180912101807E8061682B60939A
:100A90002101509327014093260180912001886015
:100AA000D3CF90E080E008950F931F93009709F44F
:100AB00089C06115710509F485C000917C0210910F
:100AC0007D0220917E0230917F020E3F1F4F2F4FFB
:100AD0003F4F09F068C04FEF5FEFBA0140937C02CF
:100AE00050937D0260937E0270937F0240917C025E
:100AF00050917D0260917E0270917F02DC0112961E
:100B0000ED91FC9180819181A281B3818093030555
:100B100090930405A0930505B09306058481958103
:100B2000A681B7818093FF0490930005A0930105EF
:100B3000B093020580859185A285B3858093FB04DF
:100B40009093FC04A093FD04B093FE0484859585E6
:100B5000A685B7858093F7049093F804A093F904D1
:100B6000B093FA041092F3041092F4041092F50476
:100B70001092F6040E945D1182E891E19093DA03ED
:100B80008093D9039093DC038093DB030E944C1085
:100B9000009731F421E030E03093080520930705F9
:100BA0001F910F91089500917C0210917D02209178
:100BB0007E0230917F02DB010D931D932D933C93B8
:100BC000139794CF8FEF9FEFEBCF8F929F92AF92BF
:100BD000BF92CF92DF92EF92FF921F93CF93DF935A
:100BE0004B015C0110910A0582E090E090930805AA
:100BF0008093070581149104A104B10441F480910C
:100C00000A05811104C080910905C1E08111C0E08D
:100C1000C12CD12C760180910A05811106C08091EA
:100C20000905811102C0CC23D9F083E090E09093B4
:100C3000080580930705CC2381F1CCE9DFEF111182
:100C400002C00E94E714CE01DF91CF911F91FF9067
:100C5000EF90DF90CF90BF90AF909F908F900895CE
:100C60006AE070E080E090E00E94D83380E1C80E36
:100C700087E2D81EE11CF11C8FEF88169806A806A3
:100C8000B80631F0C1E08C149D04AE04BF0408F036
:100C9000C0E080E00E948010BECFD0E0C0E0CFCFA7
:100CA000CF92DF92EF92FF920F931F93CF93DF9338
:100CB0008F3F910511F008F051C020910705309148
:100CC00008052330310539F02091070530910805DA
:100CD0002130310531F424E030E0309308052093D1
:100CE00007056A017B01EC0182309105A8F011E053
:100CF000AE01C701B6010E944B10AB01BC01CE0191
:100D00001123F9F0DF91CF911F910F91FF90EF9098
:100D1000DF90CF900C9413178C01000F111F075216
:100D20001C4FD8018D919C91892B09F30E941D17AE
:100D30000297E9F6D801ED91FC91CE011995182F93
:100D4000D7CF0E94351790E080E0DF91CF911F91BF
:100D50000F91FF90EF90DF90CF9008958FEF9FEF6E
:100D6000F4CF80E00C948010CF93DF9386E090E086
:100D700090930805809307050E94D910EC01E9EDD6
:100D8000F3E084E0DF011D928A95E9F70E947F1469
:100D90001092080510920705CE01DF91CF910895BA
:100DA0008091090508958091F204089560937C0272
:100DB00070937D0280937E0290937F0290E080E0AA
:100DC0000895EF92FF920F931F93CF93DF93C091FB
:100DD0008C04D0918D0485ECE82E8BE0F82EF70181
:100DE00020813181428153816091340270913502BA
:100DF00080913602909137020E9433310DEC1BE056
:100E0000F80120813181428153810E94432F688300
:100E100079838A839B83F7012481358146815781B9
:100E2000609148027091490280914A0290914B0270
:100E30000E943331F80120853185428553850E9417
:100E4000432F6C837D838E839F83DF91CF911F918E
:100E50000F91FF90EF9008954F925F926F927F9263
:100E60008F929F92AF92BF92CF92DF92EF92FF92BA
:100E70000F931F93CF93DF9300D01F92CDB7DEB7B0
:100E80008091C9049091CA048130910509F040C451
:100E90006091B5047091B6048091B7049091B80444
:100EA0006F5F7F4F8F4F9F4F0E94DC2F2091B904BF
:100EB0003091BA044091BB045091BC040E9433317C
:100EC00060930D0470930E0480930F0490931004AC
:100ED000C0902402D0902502E0902602F0902702D4
:100EE000A70196016091780B7091790B80917A0B34
:100EF00090917B0B0E94A72F882341F0C092780B22
:100F0000D092790BE0927A0BF0927B0B8091770B69
:100F100081111092770BBE016F5F7F4F80917C0B28
:100F20009FDB69817A818B819C810E94DE2F2091D9
:100F30002C0230912D0240912E0250912F020E94DE
:100F40003331209130023091310240913202509180
:100F500033020E9433316B017C01C092CD0BD092E1
:100F6000CE0BE092CF0BF092D00B2091C50B3091BD
:100F7000C60B4091C70B5091C80B6091380270911D
:100F8000390280913A0290913B020E94333120E075
:100F900030E0A9010E94432F4B015C0120913C02EB
:100FA00030913D0240913E0250913F02C701B6018F
:100FB0000E9433319B01AC01C501B4010E94432F53
:100FC0006093D10B7093D20B8093D30B9093D40B7F
:100FD000C0902802D0902902E0902A02F0902B02C3
:100FE000A701960160916C0B70916D0B80916E0B57
:100FF00090916F0B0E94A72F882341F0C0926C0B39
:10100000D0926D0BE0926E0BF0926F0B80916B0B98
:10101000811110926B0BBE016F5F7F4F8091700B3F
:101020001FDB69817A818B819C810E94DE2F209158
:1010300040023091410240914202509143020E948D
:101040003331209144023091450240914602509143
:1010500047020E9433316B017C01C092D50BD092C4
:10106000D60BE092D70BF092D80B2091C90B3091A0
:10107000CA0B4091CB0B5091CC0B60914C027091FC
:101080004D0280914E0290914F020E94333120E038
:1010900030E0A9010E94432F4B015C0120915002D6
:1010A000309151024091520250915302C701B60152
:1010B0000E9433319B01AC01C501B4010E94432F52
:1010C0006093D90B7093DA0B8093DB0B9093DC0B5E
:1010D000C0901402D0901502E0901602F090170212
:1010E000A70196016091850B7091860B8091870B0B
:1010F0009091880B0E94A72F882341F0C092850B06
:10110000D092860BE092870BF092880B88E0B8D8DB
:101110008093F50B882309F412C32091CD0B3091F5
:10112000CE0B4091CF0B5091D00B60910C0270917F
:101130000D0280910E0290910F020E9433316B01DB
:101140007C012091D10B3091D20B4091D30B509167
:10115000D40B609108027091090280910A0290916B
:101160000B020E9433319B01AC01C701B6010E9402
:10117000432F6B017C012091D50B3091D60B409110
:10118000D70B5091D80B60910402709105028091A9
:101190000602909107020E9433319B01AC01C70106
:1011A000B6010E94432F6B017C012091D90B309135
:1011B000DA0B4091DB0B5091DC0B609100027091D7
:1011C000010280910202909103020E9433319B013F
:1011D000AC01C701B6010E94432F2091100230914B
:1011E000110240911202509113020E943331609318
:1011F000DD0B7093DE0B8093DF0B9093E00B20915F
:10120000DD0B3091DE0B4091DF0B5091E00B6091D4
:1012100058027091590280915A0290915B020E948B
:10122000333120915C0230915D0240915E02509119
:101230005F020E9433314B015C01C0906002D0908C
:101240006102E0906202F09063029B01AC01C70171
:10125000B6010E94A72F87FD12C0C0906402D090F3
:101260006502E0906602F09067029401A501C70153
:10127000B6010E942F31181614F064017501809098
:10128000680290906902A0906A02B0906B02A70178
:1012900096015F77C501B4010E94422F2B013C01EA
:1012A000A701960160916C0270916D0280916E02AF
:1012B00090916F020E94A72F18160CF451C2C5011D
:1012C000B4010E9419304B015C01E2D581114BC27F
:1012D000C501B40198D5811146C220E030E040E854
:1012E00053E4C501B4010E9433304B015C0120E09E
:1012F00030E0A9010E94A72F87FF38C2C501B401C1
:1013000090580E94B02F61956093F30B66E070E0F7
:1013100080E090E0E9D95C019093BC0B8093BB0B1B
:101320006091F30B70E090E080E00E94DC2FAB0155
:10133000BC01C501B7D9A7019601609170027091F7
:10134000710280917202909173020E94A72F181669
:101350000CF411C2C301B2010E9419306B017C016F
:1013600097D5811111C2C701B6014DD581110CC2AB
:1013700020E030E040E853E4C701B6010E9433307A
:101380006B017C0120E030E0A9010E94A72F87FFBC
:10139000FEC1C701B60190580E94B02F61956093BD
:1013A000F40B67E070E080E090E09ED97C019093C0
:1013B000B40B8093B30B6091F40B70E090E080E08D
:1013C0000E94DC2FAB01BC01C7016CD9E090C904BD
:1013D000F090CA042091D50B3091D60B4091D70BD9
:1013E0005091D80B609174027091750280917602D1
:1013F000909177020E9433316093E10B7093E20B7E
:101400008093E30B9093E40B2091CD0B3091CE0BA6
:101410004091CF0B5091D00B60917802709179027E
:1014200080917A0290917B020E9433316093E50BA8
:101430007093E60B8093E70B9093E80BEA94EF2808
:1014400009F08AC0C0901802D0901902E0901A02E8
:10145000F0901B02A70196016091A90B7091AA0B55
:101460008091AB0B9091AC0B0E94A72F882341F089
:10147000C092A90BD092AA0BE092AB0BF092AC0BEE
:1014800066E370E080E090E00E9459019093A80B21
:101490008093A70B43E050E061EF7BE00E9448019E
:1014A000C0901C02D0901D02E0901E02F0901F021E
:1014B000A701960160919D0B70919E0B80919F0BEF
:1014C0009091A00B0E94A72F882341F0C0929D0B02
:1014D000D0929E0BE0929F0BF092A00B67E370E01E
:1014E00080E090E00E94590190939C0B80939B0BAD
:1014F00043E050E06FEE7BE00E944801C090200284
:10150000D0902102E0902202F0902302A7019601E0
:101510006091910B7091920B8091930B9091940B31
:101520000E94A72F882341F0C092910BD092920B7A
:10153000E092930BF092940B68E370E080E090E00F
:101540000E9459019093900B80938F0B43E050E0E1
:101550006DEE7BE00E944801E091CC04F091CD0457
:1015600080819181A281B3818093E90B9093EA0BF2
:10157000A093EB0BB093EC0B8091C9049091CA043B
:10158000019759F44091BD045091BE046091BF048D
:101590007091C00481E090E083DB0091C904109158
:1015A000CA040130110509F09EC040900D0450900E
:1015B0000E0460900F0470901004E0911104F091FB
:1015C000120480809180A280B380E0914104F09168
:1015D0004204E080F180E0910504F0910604C080AF
:1015E000D180E0910304F091040411821082E09113
:1015F0003B04F0913C04D182C082E3DBE0913D04E6
:10160000F0913E040190F081E02D4082518262828F
:101610007382F6012081318142815381C501B40179
:101620000E9433319B01AC01F7016081718182819D
:1016300093810E94432FF701608371838283938398
:10164000F6012481358146815781C501B4010E948C
:1016500033319B01AC01F7016481758186819781EB
:101660000E94432FF7016483758386839783E091FB
:101670000304F0910404118300838091B5049091D8
:10168000B604A091B704B091B8040196A11DB11D94
:101690008093B5049093B604A093B704B093B804B4
:1016A00080910D0490910E04A0910F04B09110044C
:1016B000E091CC04F091CD0480839183A283B38325
:1016C0008091BD049091BE04A091BF04B091C0046C
:1016D0000196A11DB11D8093BD049093BE04A093FB
:1016E000BF04B093C0040F900F900F900F90DF9144
:1016F000CF911F910F91FF90EF90DF90CF90BF900F
:10170000AF909F908F907F906F905F904F900895D3
:10171000892B09F0DDCBE0913D04F0913E0401906E
:10172000F081E02D80819181A281B381E091CC0490
:10173000F091CD0480839183A283B383C9CB809140
:10174000540290915502A0915602B0915702809395
:10175000DD0B9093DE0BA093DF0BB093E00B4FCD2E
:10176000C301B201AECD812C912C5401C501B4014D
:101770000E94B02FC9CD609168027091690280917A
:101780006A0290916B02E8CDC12CD12C7601C70181
:10179000B6010E94B02F03CE4F925F926F927F925C
:1017A000AF92BF92DF92EF92FF920F931F93CF936E
:1017B000DF9384E090E0F0D2EDEFF3E0C9ECD4E009
:1017C000D783C6838CEC94E090933E0480933D04D1
:1017D00009EB14E0158B048B2CE834E037AF26AF0F
:1017E00066E874E070934204609341042DEA34E0AB
:1017F0003093400420933F042FEA34E030934404B4
:101800002093430428E834E03093460420934504B1
:101810002AE834E030934804209347044EE854E02B
:101820005093840440938304F0936804E093670426
:10183000F583E48321E030E03983288310927E042D
:10184000109285042BE934E0A3E9B4E0E901B983FF
:10185000A883C5ECDBE0DB01CD93DC9363E67BE0A2
:10186000DA016D937C931092C1041092C20410921D
:10187000C3041092C4043187208726EB32E03387FB
:1018800022872EEC34E0DC012D933C9340E050E0C5
:1018900060E87FEB4093C5045093C6046093C7048F
:1018A0007093C8044AE057ED63EA7BE3D8014D9397
:1018B0005D936D937C9313974DE954E08DE8482E2A
:1018C00085E9582E83EE682E8AE0782EDA014D9253
:1018D0005D926D927C9213978BEB99EDAAE8B9E833
:1018E0008093A1049093A204A093A304B093A404B2
:1018F00083E09AE7A0EABDE78093A5049093A6044D
:10190000A093A704B093A80489E498EBA9EFB1EDE4
:101910008093A9049093AA04A093AB04B093AC0461
:10192000A1EFB3E0B383A283EDEDF3E01196FC9356
:10193000EE938BEB92E091838083938382839583F4
:10194000848397838683918780879387828795870F
:10195000848797878687918B808B938B828B83EB91
:1019600094E015969C938E93149713965C934E93E4
:10197000129717963C932E931697188219821A8203
:101980001B821C821D821E821F82C5E6DBE01F8A2D
:101990001C8690E0A92E92E0B92EF50184A195A1B4
:1019A000A6A1B7A18B8B9C8BAD8BBE8B412C512CF0
:1019B000320143944D865E866F86788A4CE75BE001
:1019C00063E082E00E942702DD24D394D98A1A8A38
:1019D0008F890E9442031B861882F50180A591A57C
:1019E000A2A5B3A58F839887A987BA8749825A820F
:1019F0006B827C8240E75BE063E182E10E94270228
:101A0000DD821E828B850E944203188EF501848937
:101A10009589A689B78988A399A3AAA3BBA3498E50
:101A20005A8E6B8E7C8E60E088E00E943801DD8EDD
:101A30001092B50B4092B60B5092B70B6092B80B58
:101A40007092B90BE12CF12C8701A801970166E097
:101A500070E080E090E00E94B8039093BC0B80930C
:101A6000BB0BD092BA0B1092AD0B4092AE0B5092C2
:101A7000AF0B6092B00B7092B10BA801970167E0B9
:101A800070E080E090E00E94B8039093B40B8093E4
:101A9000B30BD092B20B1CAEF501808D918DA28D4F
:101AA000B38D8093A90B9093AA0BA093AB0BB0932B
:101AB000AC0B4092A20B5092A30B6092A40B7092BD
:101AC000A50B66E370E080E090E00E949D0190939A
:101AD000A80B8093A70BD092A60B18AAF501848DB2
:101AE000958DA68DB78D88AF99AFAAAFBBAF49AA28
:101AF0005AAA6BAA7CAA67E370E080E090E00E949B
:101B00009D019FAB8EABDDAA1CA2F50180A191A126
:101B1000A2A1B3A18CA79DA7AEA7BFA74DA25EA20D
:101B20006FA278A668E370E080E090E00E949D01DB
:101B30009BA78AA7D9A6DF91CF911F910F91FF9004
:101B4000EF90DF90BF90AF907F906F905F904F903D
:101B500008958091710B811114C081E08093710B05
:101B60008091720B9091730BA091740BB091750BD7
:101B70000197A105B10529F48091760B81110E948E
:101B80004F038091650B811114C081E08093650B38
:101B90008091660B9091670BA091680BB091690BD7
:101BA0000197A105B10529F480916A0B81110E946A
:101BB0004F0380917D0B811103C081E080937D0BE9
:101BC0008091B50B81112EC081E08093B50B80917F
:101BD000B60B9091B70BA091B80BB091B90B0197D0
:101BE000A105B105F9F48091BA0B8823D9F066E01C
:101BF00070E080E090E00E9474039093BC0B8093AF
:101C0000BB0B40E050E0BA010E94520366E070E076
:101C100080E090E00E9474039093BC0B8093BB0B18
:101C20000E9403048091AD0B81112EC081E080934E
:101C3000AD0B8091AE0B9091AF0BA091B00BB0911A
:101C4000B10B0197A105B105F9F48091B20B88237E
:101C5000D9F067E070E080E090E00E947403909318
:101C6000B40B8093B30B40E050E0BA010E945203E2
:101C700067E070E080E090E00E9474039093B40B02
:101C80008093B30B0E9403048091A10B81111FC0AC
:101C900081E08093A10B8091A20B9091A30BA09166
:101CA000A40BB091A50B0197A105B10581F480911A
:101CB000A60B882361F066E370E080E090E00E946C
:101CC00059019093A80B8093A70B0E94C0018091AB
:101CD000950B81111FC081E08093950B8091960B2D
:101CE0009091970BA091980BB091990B0197A1053A
:101CF000B10581F480919A0B882361F067E370E06D
:101D000080E090E00E94590190939C0B80939B0B84
:101D10000E94C0018091890B81111FC081E08093D6
:101D2000890B80918A0B90918B0BA0918C0BB091B9
:101D30008D0B0197A105B10581F480918E0B88234D
:101D400061F068E370E080E090E00E9459019093B8
:101D5000900B80938F0B0C94C001089560E070E0AD
:101D600080E89FE7089560E070E080E89FE70895CD
:101D700060E070E080E89FEF089560E070E080E848
:101D80009FEF089560E070E080EC9FEF089560E0C1
:101D900070E080EC9FEF0895F5DF6093020C709384
:101DA000030C8093040C9093050CF1DF6093F60B09
:101DB0007093F70B8093F80B9093F90BCFDF609340
:101DC000FE0B7093FF0B8093000C9093010CCBDF04
:101DD0006093FA0B7093FB0B8093FC0B9093FD0BBD
:101DE000C7DF6093060C7093070C8093080C9093E8
:101DF000090CC3DF60930A0C70930B0C80930C0CDE
:101E000090930D0C0895CF92DF92EF92FF92CF93B3
:101E10006B017C01AC019B016091FE0B7091FF0B8B
:101E20008091000C9091010C0E94A72FC1E08823A3
:101E300071F0A70196016091060C7091070C8091DA
:101E4000080C9091090C0E94A72F8111C0E08C2FE3
:101E5000CF91FF90EF90DF90CF9008950F931F9355
:101E60008B019C010027112720783F770115110570
:101E700020483F4749F4AB01BC016F77772781E0E9
:101E8000452B462B472B09F480E01F910F910895B5
:101E9000E5CF4F925F926F927F928F929F92AF9217
:101EA000BF92CF92DF92EF92FF920F931F93F8941D
:101EB0004090E2045090E3046090E4047090E504E4
:101EC000C090D604D090D704E090D804F090D90404
:101ED0004130510509F0A4C09B01AC01241935091A
:101EE0004609570929013A010091DE041091DF04E7
:101EF0002091E0043091E10448015901840C951CC3
:101F0000A61CB71C80169106A206B306A0F4009189
:101F1000DA041091DB042091DC043091DD040F5FC2
:101F20001F4F2F4F3F4F0093DA041093DB04209391
:101F3000DC043093DD048092DE049092DF04A092F2
:101F4000E004B092E1040091DA041091DB042091E6
:101F5000DC043091DD048092E6049092E704A092C4
:101F6000E804B092E9040093EA041093EB04209390
:101F7000EC043093ED046093E2047093E3048093E7
:101F8000E4049093E504A8E8B3E1A30192010E9460
:101F9000243A6C0D7D1D8E1D9F1D6093D604709399
:101FA000D7048093D8049093D90400917C021091B7
:101FB0007D0220917E0230917F020F3F1F4F2F4FF5
:101FC0003F4FF1F000917C0210917D0220917E0242
:101FD00030917F020E3F1F4F2F4F3F4F89F0C0902F
:101FE0007C02D0907D02E0907E02F0907F0221E0A2
:101FF0008C149D04AE04BF0408F420E02093F20486
:1020000078941F910F91FF90EF90DF90CF90BF9049
:10201000AF909F908F907F906F905F904F900895BA
:102020004B015C0184189508A608B708A30192012A
:10203000261B370B480B590B64157505860597054C
:10204000D0F082169306A406B50640F420E030E0F6
:10205000A90181149104A104B10491F4A8E8B3E1A9
:102060000E94243AA7019601261B370B480B590BF7
:10207000CA01B901C5CF82169306A406B50670F74A
:10208000A8E8B3E1A50194010E94243A6C0D7D1DDE
:102090008E1D9F1DB5CFFDCECF93DF9300D01F9235
:1020A000CDB7DEB71C821B821A8219821092EE0411
:1020B0001092EF041092F0041092F104BE016F5FD1
:1020C0007F4FCE0103960E94542D69817A818B81C6
:1020D0009C810E944226009761F4BE016F5F7F4F92
:1020E000CE0103960E94602D69817A818B819C814B
:1020F00032D50F900F900F900F90DF91CF910895F0
:10210000FF920F931F93CF93DF93082F60E070E04F
:10211000CB010E94D833FF24F3940E942B25EC01BD
:10212000892B89F010E0CE3F8FEFD80769F00023AC
:1021300061F160E070E0CB010E94D83381E090E073
:10214000892B59F322C011E029D5EC01892B21F00C
:10215000CE3F8FEFD80759F711111EC011E022961C
:1021600009F410E00E94DB24EC01892B21F0CE3F22
:102170008FEFD807E1F6111111C011E0CE3F8FEFBC
:10218000D80709F410E001110BC0CE01DF91CF9107
:102190001F910F91FF90089511E0E4CF11E0F3CF6C
:1021A00060E070E0CB010E94D8331F25812F90E0C2
:1021B000C7CFCF93DF938091F204882321F060E0B2
:1021C00070E0CB0150D639D6D0E0C0E0892B71F059
:1021D0006AE070E080E090E00E94D83381E090DF18
:1021E0002CD62196C03D27E0D20781F72BD60E943E
:1021F000962610920A051092090510920305109276
:10220000040510920505109206051092FF04109225
:10221000000510920105109202051092FB04109225
:10222000FC041092FD041092FE041092F704109228
:10223000F8041092F9041092FA041092F304109228
:10224000F4041092F5041092F6044EEF5FEF6FEF76
:102250007FEF40937C0250937D0260937E027093E7
:102260007F021092F204E6EEF4E028E0DF011D9216
:102270002A95E9F71092E2041092E3041092E40424
:102280001092E5041092DE041092DF041092E00434
:102290001092E1041092DA041092DB041092DC0434
:1022A0001092DD041092D6041092D7041092D80434
:1022B0001092D904DF91CF910895109216051092D3
:1022C00017051092180510921905109215058091A6
:1022D0001E0590911F05909314058093130510928D
:1022E00012051092110510920D0510920E05109214
:1022F0000F051092100510921B0510921A0590E020
:1023000080E00895CF92DF92EF92FF920F931F9398
:10231000CF938C01019709F055C020911E05309193
:102320001F05809113059091140540911E05509151
:102330001F0550931405409313052817390781F0A2
:10234000109212051092110510920D0510920E05B3
:1023500010920F051092100510921B0510921A058D
:1023600080911E0590911F05019761F580911A05D6
:1023700090911B05892B21F480918002811112C05C
:1023800080911A0590911B050197E1F480910D054C
:1023900090910E05A0910F05B09110050197A10530
:1023A000B10581F410920D0510920E0510920F05E3
:1023B000109210051092800282E090E090931B052D
:1023C00080931A0580911E0590911F05019709F0D1
:1023D0001CC180913405909135058017910709F053
:1023E00014C18091300590913105A0913205B091D2
:1023F0003305009709F409C120912F0521110DC063
:10240000409130055091310560913205709133054E
:10241000452B462B472B09F4F8C020911A05309123
:102420001B052230310509F0F0C020911105211162
:10243000ECC0FC01C080D180E280F3808091150562
:10244000882309F4D3C08091210590912205892B1E
:1024500009F4FEC0209121053091220581E022304F
:10246000310509F080E02091210530912205C1E07D
:102470002130310549F02091210530912205C1E03C
:102480002230310509F0C0E0882309F456C02091BC
:102490002B0530912C0540912D0550912E05C7013B
:1024A000B6010E942F3187FD14C020912B05309179
:1024B0002C0540912D0550912E05609116057091C7
:1024C000170580911805909119050E94A72F87FD87
:1024D00022C020912B0530912C0540912D05509163
:1024E0002E05C701B6010E942F31181634F5209130
:1024F0002B0530912C0540912D0550912E056091B2
:1025000016057091170580911805909119050E9484
:10251000A72F811112C08091230590912405A091CD
:102520002505B0912605892B8A2B8B2B19F481E088
:102530008093120581E080931105CC2309F456C0E5
:1025400020912B0530912C0540912D0550912E05A1
:10255000C701B6010E94A72F87FF14C020912B0549
:1025600030912C0540912D0550912E056091160556
:102570007091170580911805909119050E942F31CF
:1025800087FF22C020912B0530912C0540912D050D
:1025900050912E05C701B6010E94A72F811126C0B8
:1025A00020912B0530912C0540912D0550912E0541
:1025B0006091160570911705809118059091190585
:1025C0000E942F31181694F48091230590912405D0
:1025D000A0912505B0912605892B8A2B8B2B19F408
:1025E00081E08093120581E08093110581E0909154
:1025F0001105911180E080931505C0921605D092C7
:102600001705E0921805F09219050130110509F03F
:1026100067C180911A0590911B05892BD9F41092FE
:1026200020051092110580918002882379F082E0C4
:1026300090E090931B0580931A05109280022091E0
:102640001E0530911F0581E0232BE9F080E01BC0BF
:1026500081E009CF1092800280912005882349F003
:102660001092120510921B0510921A051092200567
:10267000EDCF80911E0590911F05892BE1F080918F
:1026800011051092110520911A0530911B05223079
:10269000310509F45EC088F42115310509F448C0FC
:1026A0002130310509F4F3C0109212051092110582
:1026B0001092200538C081E0E6CF2330310509F4BF
:1026C000B1C02430310581F740910D0550910E05C0
:1026D00060910F0570911005411551056105710557
:1026E00061F0415051096109710940930D05509302
:1026F0000E0560930F057093100540910D055091E4
:102700000E0560910F0570911005452B462B472B48
:10271000D9F420911C0530911D052130310509F0B7
:1027200046C01092120510921B0510921A050CC09B
:1027300080918002882341F082E090E090931B0515
:1027400080931A051092800210920B058091120559
:10275000CEC08823C9F38091230590912405A091D0
:102760002505B0912605181619061A061B060CF049
:102770007DC080911E0590911F05019709F076C0DC
:102780008091230590912405A0912505B0912605FF
:1027900080930D0590930E05A0930F05B09310053F
:1027A00083E090E090931B0580931A05CDCF409174
:1027B0002705509128056091290570912A05452B20
:1027C000462B472BA9F01092120580912705909176
:1027D0002805A0912905B0912A0580930D059093B5
:1027E0000E05A0930F05B093100581E090E0DACFBD
:1027F000882399F08091810290918202A0918302B6
:10280000B091840280930D0590930E05A0930F055F
:10281000B093100584E090E0C5CF1092120582E0DD
:1028200090E0C0CF80910D0590910E05A0910F050D
:10283000B09110050097A105B10559F00197A109C4
:10284000B10980930D0590930E05A0930F05B093E9
:10285000100580910D0590910E05A0910F05B09186
:102860001005892B8A2B8B2B09F06ECF809181026A
:1028700090918202A0918302B0918402892B8A2BCD
:102880008B2B09F44ECF81E080931205B3CF40919A
:102890000D0550910E0560910F05709110054115C1
:1028A00051056105710561F04150510961097109D6
:1028B00040930D0550930E0560930F05709310051E
:1028C00040910D0550910E0560910F057091100516
:1028D000452B462B472B09F037CF8111C7CF9FCF10
:1028E00080910B05882309F431CF80910C05CF919D
:1028F0001F910F91FF90EF90DF90CF90089510926D
:1029000016051092170510921805109219051092CD
:10291000150510921B0510921A05109214051092BD
:10292000130510923505109234051092120510927D
:10293000110510920D0510920E0510920F051092C0
:10294000100510920C0510920B0510923005109294
:102950003105109232051092330510922F05109216
:102960002B0510922C0510922D0510922E0588EE45
:1029700093E0A0E0B0E08093810290938202A09364
:102980008302B093840210922705109228051092BA
:10299000290510922A051092230510922405109201
:1029A000250510922605109222051092210581E03E
:1029B000809380021092200510921F0510921E0530
:1029C00010921D0510921C0590E080E00895809102
:1029D0001E0590911F05892B19F58091800288238F
:1029E00051F080912005811106C081E080930C0593
:1029F00080930B050895209120053091800281E09D
:102A000090E0332311F090E080E030E082239323C4
:102A1000892B21F010920C0581E0EACF10920B0572
:102A2000089582E090E0FA01918380838FEF9FEF19
:102A30000895CF93DF93EA01009711F00E94B62723
:102A40001982188290E080E0DF91CF910895DB0138
:102A5000009719F48FEF8C9308952EEF2C93FC01BF
:102A60007096E031F10508F037C08827E55CFA4E32
:102A70008F4F0C941C3A6A1568156615641562151B
:102A800060155C155E155A155815561553154F15DA
:102A90004B1551156C1580E311968C93089589E2BE
:102AA000FBCF82E2F9CF11961C92089583E2F4CF16
:102AB00081E2F2CF81E1F0CF87E2EECF8AE2ECCF84
:102AC00080E1EACF84E2E8CF88E2E6CF86E2E4CF95
:102AD00081E3E2CF83E3E0CF80E2DECF8091420565
:102AE000909143050895909343058093420508957E
:102AF00080914105089590914105892B809341056E
:102B00000895982F909580914105892380934105E0
:102B1000089580914005089580913E0590913F056C
:102B200008956115710559F0FB0130E020E070E077
:102B300060E02417350719F06115710511F0CB011C
:102B40000895A081B181A817B90709F4BF012F5FCB
:102B50003F4F3696EECF8091440581111CC060D264
:102B600066D290933705809336050E94B41F0E9469
:102B7000C61F90933B0580933A050E9443240E9410
:102B80004A24909339058093380581E08093440569
:102B900090E080E0089584EF9FEF08958F929F92D8
:102BA000AF92BF92CF92DF92EF92FF920F931F935B
:102BB000CF93DF9300D000D000D01F92CDB7DEB707
:102BC0001A86198618861F821E821D821C821B820D
:102BD0001A8219828091440507EF1FEF882309F4B8
:102BE0009CC08E010D5F1F4F9E012B5F3F4FAE01BA
:102BF000495F5F4FBE01675F7F4F90E080E00E94BA
:102C0000C7258C01009721F00596029708F0DBC0DC
:102C100029853A852115310509F402C1ED80FE8030
:102C20004B815C81B701640F751F8F819885861772
:102C3000970708F4F5C0E20EF31ED7019C91903C73
:102C400009F07FC04230510508F47BC011968C9189
:102C50004091420550914305452B09F49CC0913F9A
:102C600008F071C02CE1290F2D3008F48BC02DE243
:102C7000290F203108F489C0903C21F48150823022
:102C800008F483C088E3890F8B3008F481C097E291
:102C9000C92E95E1D92EE1E1F5E16D817E81AE018C
:102CA0004F5F5F4F89859A8519955C01C114D104E6
:102CB000A1F189809A808114910479F18B819C81A2
:102CC0008815990508F487C010E000E04B815C810D
:102CD00070E060E0C7010E94463A01151105E9F471
:102CE00049815A8169857A858D819E81680F791F16
:102CF000C501F6011995E980FA800D811E812F81A9
:102D0000388549855A856FEF7FEF81E090E00E941A
:102D100062258C01892B09F056C0C8012A960FB68E
:102D2000F894DEBF0FBECDBFDF91CF911F910F9101
:102D3000FF90EF90DF90CF90BF90AF909F908F90DB
:102D4000089580E085CF30E020E0220F331FF901A5
:102D5000EA5CFA4F0190F081E02D309709F497CFAB
:102D6000892F90E01995009709F491CFDC01129614
:102D7000ED91FC9113971496CD90DC90309709F06B
:102D80008CCF1FC021E030E0E0CF22E030E0DDCF8B
:102D900023E030E0DACFD12CC12CE9E1F5E19F3F0F
:102DA00009F07BCFE0913605F0913705309721F49B
:102DB000C90104EF1FEF0CC08FEF90E01995009749
:102DC000A9F604EF1FEF89859A85009709F4A5CF2E
:102DD0000E94B627A2CF0E9491268C0189859A85F0
:102DE0000E94B62770E060E0C4010E942A269887FE
:102DF0008F830E945F259E838D836F817885611507
:102E0000710559F0C8010E9442299A87898706EF07
:102E10001FEF892B09F058CF59CF08EF1FEF56CF7E
:102E200008EF1FEFD0CF20914405222319F020E0B6
:102E30000C94CB1F87EF9FEF0895809142059091EE
:102E4000430508950E944F240E94A923F5D0E6E38C
:102E5000F5E088E0DF011D928A95E9F710924405BC
:102E600090E080E008950C94072221E040E050E0DB
:102E7000BA010C94CB1F86E090E0FA019183808325
:102E800090E080E0089547E050E06EEB72E049CEBC
:102E9000DF92EF92FF920F931F93CF93DF938A01FC
:102EA000EC01C60FD71FE0904805F0904905D98086
:102EB0000E947926D816190678F082E090E0F80191
:102EC000918380838EEF9FEFDF91CF911F910F91C0
:102ED000FF90EF90DF900895EF2841F482E090E0BA
:102EE000F8019183808384EF9FEFEECF89818093F7
:102EF000470590E00196F8019183808390E080E09F
:102F0000E3CFCF93DF93EA010E94B822882321F018
:102F10000E9486260E94B92282E090E099838883ED
:102F20008BEF9FEFDF91CF910895CF93DF93EB016C
:102F300086E0FB0111928A95E9F78FEF8883D8DD4F
:102F40008983E7DD8A83E8DD9D838C83DF91CF91E0
:102F50000895CF93DF93EA010E94BB22811109C03B
:102F600082E090E09983888385EF9FEFDF91CF9196
:102F7000089590E080E0B7DD81E090E09983888358
:102F800090E080E0F3CF0F931F93CF93DF93EA019C
:102F90008C01060F171F0E94BB2281110BC082E01B
:102FA00090E09983888385EF9FEFDF91CF911F9108
:102FB0000F910895F8018181823038F082E090E02D
:102FC000998388838EEF9FEFF0CF81E090E08BDDD7
:102FD00088E090E09983888390E080E0E6CFCF930B
:102FE000DF930097D1F4EB01FB01329686E0DF011D
:102FF0001D928A95E9F78FEF888385E089831A828D
:103000000E9479268B830E9478269D838C8381E0A1
:103010008E838F83DF91CF910895DF91CF9117CD6C
:1030200083E497E190934605809345050895809148
:103030004505909146050895109246051092450564
:10304000089580914805909149050895411105C062
:10305000611571058105910561F0609348057093D4
:10306000490580934A0590934B0540934C0581E0B8
:10307000089580E00895FF920F931F93CF93DF93FD
:103080008A01EC01C60FD71FF9800E947926F81635
:10309000190668F082E090E0F801918380838EEF5A
:1030A0009FEFDF91CF911F910F91FF9008956C8159
:1030B0007D818E819F814B81C9DF811108C082E0B3
:1030C00090E0F8019183808384EF9FEFEACF8981BC
:1030D0008093470590E00196F8019183808390E00A
:1030E00080E0DFCFCF93DF93EA01FC01E60FF71F0B
:1030F00064817581868197814381A8DF811109C030
:1031000082E090E09983888384EF9FEFDF91CF91F5
:10311000089581E090E09983888390E080E0F6CF85
:10312000E8E4F5E04081518162817381480F511DCF
:10313000611D711D40835183628373830895CF9312
:10314000C09147054C2F50E06091480570914905AA
:1031500001960E943D3A8C2FE3DF10924705CF91F4
:103160000895009799F480914805909149052FEFB3
:10317000FB012083892B59F02091470530E02F5F18
:103180003F4F2417350719F4CB01D9CF60CC0895F0
:10319000009799F480914805909149052FEFFB0124
:1031A0002083892B59F02091470530E02F5F3F4F56
:1031B0002417350719F4CB01C2CF49CC089523E178
:1031C000AC01249FC001259F900D1124E091510571
:1031D000F0915205E80FF91F238134812250310903
:1031E00081E02230310508F080E008950F931F93AD
:1031F000CF93DF930091530510915405D0E0C0E0C8
:1032000080E00C171D0749F491E0811190E0892FAF
:10321000DF91CF911F910F9108958111F5CFCE01CC
:10322000CEDF2196EECFA0915105B09152051097B7
:1032300029F1209153053091540582179307F0F43A
:1032400053E1589F9001599F300D1124A20FB31FD5
:10325000ED91FC911197309789F012968C91681737
:1032600068F48DE0689FE00DF11D1124808191814B
:10327000892B21F081E09281491708F080E00895C0
:103280009C0143E1429FC001439F900D1124E091B6
:103290005105F0915205E80FF91F8385823091F4B2
:1032A00081E090E0658176814091850250918602AF
:1032B0006417750711F490E080E0892B19F081E024
:1032C000232B09F080E00895FC01A081B1818DE0FD
:1032D000689FA00DB11D112413964D915C918585B9
:1032E0009685489F9001499F300D589F300D1124BD
:1032F000C9010196611103C0478144FD04960895F8
:10330000EF92FF920F931F93CF93DF93EA01FC019B
:10331000E60FF71F02811381E480F5804F2D6E2D9B
:10332000C80181DF81110DC082E090E0998388831C
:103330008EEF9FEFDF91CF911F910F91FF90EF9054
:103340000895C8013CDF882339F082E090E099833A
:10335000888388EF9FEFEECF10938C0200938B024F
:10336000E0928D02F0928E0281E090E09983888352
:1033700090E080E0DFCFCF92DF92EF92FF920F9349
:103380001F93CF93DF937A01EC01C60FD71FC09034
:103390008B02D0908C0200918D0210918E02412FF1
:1033A000602FC60140DF811110C082E090E0F7017C
:1033B000918380838AEF9FEFDF91CF911F910F91CF
:1033C000FF90EF90DF90CF900895C601F8DE88233C
:1033D00041F082E090E0F7019183808388EF9FEFD6
:1033E000EBCF4C815D816E817F819A8189818F3F96
:1033F00041F082E090E0F701918380838EEF9FEFB0
:10340000DBCFE3E1EC9D9001ED9D300D1124E091C7
:103410005105F0915205E20FF31F0190F081E02D6C
:103420002DE0029FE00DF11D11240190F081E02DAF
:1034300027E0129FE00DF11D1124808391838B8181
:10344000828343835483658376831F5F10938E0248
:1034500081E090E0F7019183808390E080E0ACCF41
:10346000EF92FF920F931F93CF93DF937A018C011A
:10347000060F171FC0915105D0915205209781F07A
:1034800021E030E0F8018281938140915305509111
:1034900054058417950710F030E020E0232B71F4D9
:1034A00082E090E0F701918380838EEF9FEFDF91C0
:1034B000CF911F910F91FF90EF90089543E1489FA6
:1034C0009001499F300D1124C20FD31F78DE88234D
:1034D00041F082E090E0F7019183808388EF9FEFD5
:1034E000E6CFF8012481358120383105C8F687817F
:1034F0008111D6CF4181842F90E08F7E009741F0DB
:1035000082E090E0F7019183808386EF9FEFCFCF39
:103510004F833E832D83268128871986223010F41D
:1035200021E0288721E030E0F70131832083BFCFFD
:1035300088E090E0FA019183808390E080E0089534
:10354000FB018FEF808381E181838FEF9FEF938376
:10355000828380E890E095838483168217820895A1
:10356000FB018FEF808391E0918382839383848337
:1035700084E3858381E090E097838683089582E0E9
:1035800090E0FA019183808380EF9FEF0895DF92AE
:10359000EF92FF920F931F93CF93DF93EA01FC0109
:1035A000E60FF71F8181813071F082E090E099830E
:1035B00088838FEF9FEFDF91CF911F910F91FF9045
:1035C000EF90DF90089582819381D4802581E680F9
:1035D000F78000915105109152050115110539F43C
:1035E00082E090E0998388838CEF9FEFE4CF409155
:1035F0005305509154058417950738F082E090E008
:10360000998388838EEF9FEFD6CF892B39F082E0A4
:1036100090E09983888386EF9FEFCDCF8D2D8D7FAE
:10362000B1F72130A1F781E0D11006C091E0E91691
:10363000F10431F080E004C0E2E0EE16F104D0F3D2
:10364000882329F390E080E0BADD882339F082E016
:1036500090E09983888388EF9FEFADCFF801D38600
:1036600081E08487F686E586108A178681E090E0FF
:103670009983888390E080E09ECF4DE050E068EE33
:1036800072E04FCA8F929F92BF92CF92DF92EF92D9
:10369000FF920F931F93CF93DF93EA01FC01E60F94
:1036A000F71F828193810481B580E0915105F091EB
:1036B0005205309791F482E090E0998388838CEFF3
:1036C0009FEFDF91CF911F910F91FF90EF90DF90CF
:1036D000CF90BF909F908F90089520915305309187
:1036E00054058217930738F082E090E0998388832D
:1036F0008EEF9FEFE6CF23E1289F6001299FD00C3A
:103700001124EC0DFD1DE080F180E114F10499F22B
:103710008281081748F78DE0089F80011124E00E90
:10372000F11EF70180819181892B29F6BB20E1F2FE
:10373000F7E0BF9E40011124C4010E947D27F701DC
:1037400091838083E0915105F0915205EC0DFD1DB0
:103750000190F081E02DE00FF11F808191810097B1
:1037600039F482E090E0998388838DEF9FEFA9CFB1
:10377000A40170E060E00E94463A8091510590916A
:103780005205C80ED91EF60180819181080F191FBC
:10379000F801B28281E090E09983888390E080E034
:1037A00090CFAF92BF92CF92DF92FF920F931F9371
:1037B000CF93DF93EA01FC01E60FF71F828193812B
:1037C000F48000915105109152050115110581F405
:1037D00082E090E0998388838CEF9FEFDF91CF9117
:1037E0001F910F91FF90DF90CF90BF90AF90089501
:1037F00020915305309154058217930738F082E0E9
:1038000090E0998388838EEF9FEFE8CF2FEF2F0D05
:103810002C3FA8F723E1289F6001299FD00C112499
:103820000C0D1D1DF80180819181892B89F6FDE029
:10383000FF9E50011124C5010E947D27F80191834C
:103840008083E0915105F0915205EC0DFD1D8081C2
:103850009181009739F482E090E0998388838DEF1D
:103860009FEFBCCFA50170E060E00E94463AE09176
:103870005105F0915205EC0DFD1DF28281E090E0C2
:103880009983888390E080E0A9CFCF92DF92EF9276
:10389000FF920F931F93CF93DF93860F971FFC0127
:1038A000028113818091510590915205892B81F0FD
:1038B00082E090E0FA01918380838CEF9FEFDF91AB
:1038C000CF911F910F91FF90EF90DF90CF900895CF
:1038D000C801B0E0A0E00197A109B1098F3F9F4F57
:1038E000A105B10540F082E090E0FA019183808368
:1038F0008EEF9FEFE4CF7A0183E1809F6001819F8B
:10390000D00C1124C6010E947D27EC01009741F4E0
:1039100082E090E0F701918380838DEF9FEFCFCF1E
:10392000A60170E060E00E94463AD0935205C09331
:103930005105109354050093530590E080E02FEF5C
:103940003FEF41E061E070E08017910741F481E0D2
:1039500090E0F7019183808390E080E0B0CF3A8BD4
:10396000298B1B864C877E876D87188A1F86019658
:103970006396EACFEF92FF921F93CF93DF93EC0110
:1039800010E0F12CE12C6A811617B0F083E0689FFB
:10399000B0011124AE014F5E5F4FC7010E94E227C4
:1039A000009721F02FEF3FEF3A8B298BDF91CF91DA
:1039B0001F91FF90EF900895612FCE0185DC61E0AB
:1039C00070E00E942A26E816F90608F47C011F5FC1
:1039D000DACFF89420914F053091500581E0211500
:1039E000310509F080E0232B09F0789408952F9297
:1039F0003F924F925F926F927F928F929F92AF927F
:103A0000BF92CF92DF92EF92FF920F931F93CF93CB
:103A1000DF933C01660E771EF301828193814C0196
:103A2000B12CA12CC0915105D0915205209769F07D
:103A300021E030E060915305709154058617970797
:103A400010F030E020E0232BD1F482E090E0FA0186
:103A5000918380838EEF9FEFDF91CF911F910F9124
:103A6000FF90EF90DF90CF90BF90AF909F908F909E
:103A70007F906F905F904F903F902F90089580922D
:103A80008F0290929002A0929102B092920263E112
:103A9000689F9001699F300D1124C20FD31FF3015D
:103AA0008181833040F082E090E0FA01918380834D
:103AB00086EF9FEFD1CF2A012B813C81232BF1F49C
:103AC000288139819F8191FF2EC0232B09F46FC07B
:103AD000209156059A81422F490F5527551FBA014B
:103AE00041E050E06138710514F050E040E0452BB2
:103AF00009F45DC02A87920F909356058150823059
:103B000008F481C066DF882309F4D8C0F3018181FD
:103B1000813009F48DC008F47BC0823009F4C6C03E
:103B200090E080E0ADC0232B09F441C02091550501
:103B30009A81E22FE90FFF27FF1F41E050E0ED3FA0
:103B4000F10514F050E040E0452B89F12A87920FEF
:103B500090935505D3CFA081B181A20FB31F1196C9
:103B60006C91060F111D0196295F3F4F8417950731
:103B700094F38D859E85089F1001099F300C189F36
:103B8000300C1124C114D104D1F48F8184FF17C0EB
:103B90000E947826F5E02F0E311C21E08215930556
:103BA00008F420E0A701435F5F4F21110EC082E0BF
:103BB00090E0F2019183808387EF9FEF4DCF0E94C9
:103BC00078262FEF221A320AE8CF88819981E80EF1
:103BD000F91EF70114830383FFEFCF1ADF0A7A017E
:103BE0008A818C151D0409F00CF48CCFE881F981D1
:103BF000EE0DFF1D428150E030E020E010E000E0DB
:103C000090E080E0B3CFF12CE12CD12CC12CE8CF97
:103C100081E090E09C838B83E9DA882309F480CFEC
:103C200081E090E00E94731580E40E94811578CFB6
:103C300089899A89019661F083E090E09C838B8367
:103C400082E090E00E94731580E40E947B1568CFAB
:103C50008D819E8120918502309186028217930783
:103C6000D1F46091890270918A02AE014F5E5F4F7C
:103C700080918702909188020E9401290097E1F2C9
:103C8000789422E030E0F20131832083892B99F08F
:103C90008DEF9FEFE1CE89288A288B2869F602975D
:103CA00058F6CE0167DE188A1F86E8CF82E090E0E2
:103CB0009C838B8335CF90E080E0CECE82E090E095
:103CC000F2019183808385EF9FEFC6CE8F929F9202
:103CD000AF92BF92CF92DF92EF92FF920F931F931A
:103CE000CF93DF93EA018C01060F171FF801818142
:103CF000833098F082E090E09983888386EF9FEF8D
:103D0000DF91CF911F910F91FF90EF90DF90CF90B7
:103D1000BF90AF909F908F900895809151059091A2
:103D20005205892B61F081E090E02091530530919C
:103D30005405232B11F490E080E0892B39F482E0C4
:103D400090E0998388838EEF9FEFDACF42DE88235D
:103D500009F4E0C0F8018181813009F496C0E8F0EF
:103D6000823099F42091530530915405E09151052A
:103D7000F091520590E080E041E050E028173907CB
:103D800009F0BEC033DA811117C0789481E090E069
:103D90009983888390E080E0B3CF209153053091E0
:103DA0005405E0915105F091520590E080E041E02A
:103DB00050E02817390741F481E090E00E94731524
:103DC00080E40E948115E1CF63817481672B11F03B
:103DD0005483438301967396ECCFE0915105F091A3
:103DE0005205E00FF11F2381348122303105D9F4CF
:103DF000218932892F3F3F4FB1F42581368140918F
:103E00008502509186022417350761F5AF014F5E98
:103E10005F4F6091890270918A0280918702909130
:103E200088020E940129EFEFCE1ADE0AEE0AFE0A8E
:103E30000D5E1F4F409153055091540570E060E0B6
:103E4000C416D506E606F70644F5009731F27894D5
:103E5000892B09F49BCF82E090E0998388838DEFD2
:103E60009FEF4ECFC114D104E104F104E1F62230FA
:103E70003105C8F6CF017EDDE0915105F091520584
:103E8000E00FF11F108A1786CECF10E000E090E01F
:103E900080E0C12CD12C7601CDCF0097C1F610E087
:103EA00000E0812C912C540183E0E82EF12C1AC003
:103EB000E0915105F0915205E00FF11F838194814B
:103EC000029749F4F482E38282E090E00E94731545
:103ED00080E40E947B15FFEF8F1A9F0AAF0ABF0A8A
:103EE0000D5E1F4F8091530590915405B0E0A0E006
:103EF00088169906AA06BB06DCF290E080E0A7CF00
:103F0000638174816230710511F454834383019697
:103F1000739634CF82E090E09983888385EF9FEF9A
:103F2000EFCE0097B9F48FEFFB01808320918F02D1
:103F30003091900243E1429FC001439F900D1124B4
:103F4000E0915105F0915205E80FF91F8285FB01C0
:103F5000818308950C94271588E090E0FA019183FD
:103F6000808390E080E008951092500510924F05F4
:103F7000E1E5F5E086E0DF011D928A95E9F78DE342
:103F80009BE190934E0580934D05089580914D05DA
:103F900090914E0508952F923F924F925F926F92AB
:103FA0007F928F929F92AF92BF92CF92DF92EF92C9
:103FB000FF920F931F93CF93DF93CDB7DEB72F9769
:103FC0000FB6F894DEBF0FBECDBFF894E0914F0559
:103FD000F09150053196F0935005E0934F05789499
:103FE00040905105509052054114510409F40CC2FF
:103FF000E0915305F0915405EF2B09F405C22D878C
:1040000049875A876B877C8798878F831201B12CE9
:10401000A12C10E000E08091530590915405A81662
:10402000B90618F40115110529F1F89480914F058E
:104030009091500501979093500580934F05789487
:10404000C8012F960FB6F894DEBF0FBECDBFDF912B
:10405000CF911F910F91FF90EF90DF90CF90BF9085
:10406000AF909F908F907F906F905F904F903F9018
:104070002F9008957101E418F508D10117968C91DD
:10408000179781FD54C013968D919C9114970397B7
:1040900009F04DC015968D919C91EF81F8858E1792
:1040A0009F0709F044C0B50190E080E07FD48A8387
:1040B00020915105309152053D832C833D8533235A
:1040C00009F44CC04C815D81452B09F49AC1809163
:1040D000530590915405A816B90608F092C1C50180
:1040E000CFD88823E9F06C817D816E0D7F1D7D83A3
:1040F0006C83DB011F968D919C91892B89F0D12CCB
:10410000C12CF12CE12CAC81BD8112968C911297BF
:104110008E151F0409F094F450961C921E921F975E
:104120002A81222321F0B50190E080E041D43FEFC5
:10413000A31AB30A43E1240E311C6DCFAC81BD81BB
:10414000ED91FC91EC0DFD1D858196810FD7BFEFA0
:10415000EB1AFB0AEDE0CE0ED11CD5CFEC81FD8130
:10416000309709F44EC18091530590915405A816DB
:10417000B90608F046C1EE0DFF1DFF87EE87C501A9
:104180007FD88B83882339F1AE85BF851F968D91AB
:104190009C915097019621E01D964D915C9184175A
:1041A000950709F020E02E831982712C10E000E0C1
:1041B000AE85BF8512968C91781608F45DC0EE85A9
:1041C000FF85878590890196658576850E94E63909
:1041D000908B8787A5CFB1E0BE83E6CF99249394D7
:1041E0006BC08BD6F6019683858382C0D601ED9095
:1041F000FC90B7E06B9EE00CF11C1124F701638189
:10420000748180818F3F61F121E030E002C0220F94
:10421000331F8A95E2F7C901092E000CAA0BBB0BCC
:10422000FB01408151816281738184239523A62300
:10423000B72321E0892B8A2B8B2B09F420E0D401B2
:104240002C93D70111968C91F60123853485820F2A
:10425000932F911D880E991E1486138663949BC01C
:10426000418150E0C4010E943D3AEBCF998206EFB4
:104270001FEFC5C01982C3C0F981F111A0CFEDE0D5
:104280007E9E70011124AE85BF85CD90DC90CE0C52
:10429000DF1C15D49D838C83BB81BB2309F49ECF87
:1042A00081E0EE85FF8527853089232B09F080E0AA
:1042B000982E882309F458C0672D8E859F8504D8D1
:1042C000D60118969C938E93179761E070E0C2D444
:1042D000EE85FF85218932892F3F320709F481CF8E
:1042E000BC01C901CFD7D60116969C938E93159722
:1042F000D60115968D919C911697009709F4B6CF2B
:10430000EC81FD818E0F9F1F1A969C938E931997B7
:10431000AE85BF85ED91FC911197EE0EFF1EF70162
:1043200021853285148613861A968C91870DD901C2
:104330008D93711016C0EE85FF85878184FF11C0B3
:1043400049855A856B857C85F90141835283638356
:104350007483F701838594850496A80FB91F14868A
:104360001386F701B287A187D60115968D919C918E
:104370001697892B09F443C0EE85FF852581368188
:1043800080918502909186022817390779F0199655
:104390008D909C90612CD60112968C911297681684
:1043A00008F424CF1A969C928E921997BE81BB2353
:1043B00009F460CF61E070E0F601878190854AD40E
:1043C000D6011796ED90FC90189715964D915C913B
:1043D000E1E0F0E0BA81BB2311F0F0E0E0E00C8115
:1043E0001D819C01B501882799278E1B9F0B6AD3DD
:1043F0008C01892B21F0F60185819681B7D57394C4
:10440000D7CE0FEF1FEF8CCE10E000E00ECE2F9234
:104410003F924F925F926F927F928F929F92AF9254
:10442000BF92CF92DF92EF92FF920F931F93CF93A1
:10443000DF93809151059091520510E000E0892BA7
:10444000A9F0C7DA0AEF1FEF882381F02090530507
:1044500030905405C0915105D0915205D12CC12CFA
:1044600010E000E02C143D04A9F47894C801DF9119
:10447000CF911F910F91FF90EF90DF90CF90BF9061
:10448000AF909F908F907F906F905F904F903F90F4
:104490002F900895C6010E944019882309F18B814D
:1044A0009C810397E9F48F859889892BC9F0B6011F
:1044B00090E080E07BD221E030E0882311F030E012
:1044C00020E044245524421A530AB12CA12C912CEB
:1044D000812C8A818815190409F038F4188A1F86FE
:1044E0004FEFC41AD40A6396BDCFE881F981EA0D73
:1044F000FB1D85819681892BA1F161E070E08781A8
:104500009085A8D33C01DBD28C01E881F981EA0DCA
:10451000FB1D8185928525813681200F311FAC01DD
:10452000421B530B9A0147815085421B530B70E08D
:1045300060E00E94463AE881F981EA0DFB1DE780C0
:10454000F084458156819301B601C201BBD28C0132
:10455000892B39F0E881F981EA0DFB1D858196816F
:1045600005D55FEF851A950A8DE0A80EB11CB1CF75
:1045700030CA789408952F923F924F925F926F9233
:104580007F929F92AF92BF92CF92DF92EF92FF9273
:104590000F931F93CF93DF9300D000D0CDB7DEB73A
:1045A000009151051091520599249394011511051C
:1045B00009F43EC0A0905305B09054050ADA982E35
:1045C0008823B1F1109252051092510510925405B2
:1045D0001092530510925505109256058FEF9FEFDC
:1045E000DC0180938F0290939002A0939102B0938C
:1045F000920278947FD31E830D83C12CD12C760137
:10460000C501B0E0A0E089839A83AB83BC832224F8
:104610002A94322C89819A81AB81BC81C816D90633
:10462000EA06FB06F4F0C801A1D480E40E948115DB
:10463000892D26960FB6F894DEBF0FBECDBFDF9151
:10464000CF911F910F91FF90EF90DF90CF90BF908F
:10465000AF909F907F906F905F904F903F902F9082
:104660000895AD81BE8115968D919C9116972091EC
:1046700085023091860282179307D1F451968D916D
:104680009C91EED5ED81FE8180819181B12CA12C90
:10469000412C512C3201892B89F5BFEFCB1ADB0A53
:1046A000EB0AFB0AED81FE817396FE83ED83B2CFA8
:1046B000C114D104E104F10429F7029718F7ED8140
:1046C000FE81818992898F3F980709F029D5AD81B4
:1046D000BE8152963C922E925197D4CF8A0D9B1D4B
:1046E000DC018D919C91009709F040D4BFEF4B1AEB
:1046F0005B0A6B0A7B0AEDE0AE0EB11CAD81BE8198
:104700008D919C91119712964C9150E070E060E071
:1047100044165506660677060CF328D4BECFCF9311
:10472000DF93EA0128DF811109C082E090E09983DC
:10473000888385EF9FEFDF91CF91089581E090E02E
:104740000E94731581E090E09983888390E080E077
:10475000F2CF11DF10924E0510924D05089542E000
:1047600050E066E373E00C949115FF920F931F9352
:10477000CF93DF938A01EC01C60FD71FF980B9D21E
:104780000897F816190671F068F082E090E0F801D9
:10479000918380838EEF9FEFDF91CF911F910F91D7
:1047A000FF9008956C817D818E819F814B810E9455
:1047B0002618811108C082E090E0F801918380837F
:1047C00084EF9FEFE9CFF9800E9421184F2D50E030
:1047D000BE01685F7F4F0E943D3A89810E94901818
:1047E00081E090E0F8019183808390E080E0D4CF75
:1047F000DF92EF92FF920F931F93CF93DF938A0183
:10480000EC01C60FD71F0E9421187C01D98071D2FC
:10481000DD2059F0029721E030E0D816190619F092
:1048200010F030E020E0232B79F482E090E0F801F2
:10483000918380838EEF9FEFDF91CF911F910F9136
:10484000FF90EF90DF900895EF2841F482E090E030
:10485000F8019183808384EF9FEFEECFF9800E946F
:1048600021184F2D50E0BE016E5F7F4F0E943D3AF0
:1048700089810E94901881E090E0F8019183808303
:1048800090E080E0D9CF8FEA93E29093580580932F
:1048900057050895809157059091580508950895FA
:1048A000FC0111821082938382830895DB011D92A3
:1048B0001C92DC011296ED91FC9113977183608339
:1048C00013967C936E9312970895FC0180819181D9
:1048D000DB018D939C93A081B181109741F08D9164
:1048E0009C9191838083892B11F4F383E283089553
:1048F000FC0180819181DB018D939C93892B11F4C4
:1049000073836283718360830895FC011182108236
:10491000938382830895CF93DF931F921F92CDB725
:10492000DEB71A821982F894BE016F5F7F4F8EE561
:1049300095E0CBDF89819A81009709F017D38981AF
:104940009A81892B89F7BE016F5F7F4F82E695E0E0
:10495000BCDF89819A81009709F008D389819A8107
:10496000892B89F778940F900F90DF91CF9108955C
:10497000CF93DF931F921F92CDB7DEB71A821982B1
:10498000F894BE016F5F7F4F8AE595E09EDF8981D5
:104990009A81009709F0EAD289819A81892B89F757
:1049A00078940F900F90DF91CF91089581E0089552
:1049B00090E080E00895EF92FF920F931F93CF93C2
:1049C000DF931F921F92CDB7DEB71A8219828091B2
:1049D000590507EF1FEF8823A1F1F894BE016F5F1F
:1049E0007F4F82E695E071DF789489819A81EE2489
:1049F000E394F12C892B51F4F894BE016F5F7F4F43
:104A00008EE595E062DF7894F12CE12C89819A8122
:104A10000EEF1FEF0097A9F0FC014281538164E083
:104A200070E076D68C01892B61F0F89469817A81E7
:104A3000C701880F991F880F991F825A9A4F58DF14
:104A40007894C8010F900F90DF91CF911F910F9133
:104A5000FF90EF9008950F931F93CF93DF9300D0B3
:104A60001F92CDB7DEB71C821B821A8219828091F9
:104A7000590507EF1FEF8823C1F0AE014D5F5F4F6F
:104A800064E070E0CE010196B6D68C01892B69F402
:104A9000E981FA818B819C8193838283F894698177
:104AA0007A818AE595E002DF7894C8010F900F9033
:104AB0000F900F90DF91CF911F910F910895BBD769
:104AC000049608958F929F92AF92BF92CF92DF92F9
:104AD000EF92FF920F931F93CF93DF931F921F923A
:104AE000CDB7DEB71A821982BC016F5F7F4F63308A
:104AF000710598F0AA24AA94BA2CC5010F900F90C2
:104B0000DF91CF911F910F91FF90EF90DF90CF90A9
:104B1000BF90AF909F908F9008954115510551F32C
:104B2000480159018A016C01CADF8815990511F7FE
:104B3000E114F104F9F28E0D9F1DA816B906D0F20A
:104B4000809159058823F1F0F894B50164507109FA
:104B50009701AE014F5F5F4FC8010496E1D65C013B
:104B6000892B71F489819A81F80193838283C6012C
:104B7000880F991F880F991FB801825A9A4F96DEA5
:104B80007894BBCF87EFA82EBB24BA94B6CFAF9250
:104B9000BF92CF92DF92EF92FF920F931F93CF932A
:104BA000DF931F921F92CDB7DEB71A821982892B2D
:104BB00009F047C06115710509F443C0411551055D
:104BC00009F43FC02115310509F43BC00115110559
:104BD000C1F1809159058823B9F179016A015B011E
:104BE000F894BE016F5F7F4F8AE595E06EDE7894A2
:104BF00089819A81009759F1DC0112966D917C911F
:104C0000A8010496A6D68C01E981FA81D501ED931D
:104C1000FC93828193810496F601918380834FDF18
:104C2000D7018D939C93C8010F900F90DF91CF9186
:104C30001F910F91FF90EF90DF90CF90BF90AF90BA
:104C400008950FEF1FEFEFCF07EF1FEFECCF0EEF41
:104C50001FEFE9CFCF93DF93EC01672B71F4F4D60C
:104C60008C179D0760F0E7D62496C80FD91FE6D6AB
:104C70008C0F9D1FDF91CF910895E3D6F1CF90E087
:104C800080E0F8CF0F931F93CF93DF9320915905C6
:104C900021112BC08B01EC018EE595E001DE82E64F
:104CA00095E0FEDD8AE595E0FBDD97D00097C1F445
:104CB000CBD670E060E0CEDF43E952E062E070E026
:104CC00081D1009769F48091930290919402CED69D
:104CD000B801CE0103D5009719F421E020935905BE
:104CE000DF91CF911F910F91089584EF9FEFF8CF3F
:104CF000A8C6AAC6CF93DF93AAD6EC01892B11F4DC
:104D00000ADE36DECE01DF91CF910895CF93DF9397
:104D10009ED6EC01892B09F4FEDDCE01DF91CF9107
:104D2000089580919302909194020895CF93DF9318
:104D300080915905D0E0C0E08823D1F09CD6EC01E9
:104D4000892BB1F4E8DD14DE8091930290919402F6
:104D5000E7D1E8D2EC01892B59F48EE595E0D5DD59
:104D600082E695E0D2DD8AE595E0CFDD1092590527
:104D7000CE01DF91CF910895EF92FF920F931F9391
:104D8000CF93DF93EC017A018B010F5F1F4F0E9DD4
:104D9000A0010F9D500D1E9D500D112470E060E08C
:104DA0000E94463A90E080E0F0E0E0E02FEFE81665
:104DB000F90639F4DF91CF911F910F91FF90EF9099
:104DC00008951A8219822883309711F0D283C18303
:104DD0000196FE01C00FD11FEACFCF92DF92EF9272
:104DE000FF920F931F93CF93DF930FEA17E00C7F8F
:104DF00043E050E065E972E08BE992E01CD485E97C
:104E0000E82E82E0F82E9BE9C92E92E0D92EC6EA60
:104E1000D8E0D7014D915D917D01F60161917191CD
:104E20006F01198308835D834C835B834A837F838F
:104E30006E839B012F5F3F4F249FC001259F900DE4
:104E4000349F900D1124998788870115110511F061
:104E5000C80192DF88859985080F191F2A96FBE9FA
:104E6000EF16F2E0FF06A9F6E8E6F5E084E492E04A
:104E7000DF019C011D9221503040E1F7109267053F
:104E8000109266051092C5081092C4081092C908C5
:104E90001092C8081092C7081092C6081092CB084A
:104EA0001092CA081092CD081092CC081092CF0828
:104EB0001092CE081092D3081092D2081092D10806
:104EC0001092D0081092D5081092D4081092D708EA
:104ED0001092D6081092A3081092A2081092A5086A
:104EE0001092A40890E080E0DF91CF911F910F9184
:104EF000FF90EF90DF90CF9008950097F1F0F89435
:104F0000ABE9B2E0E6EAF8E030E020E04D915D91F7
:104F100048175907A8F0428153814115510581F086
:104F20008AE0829FF001839FF00D1124EA55F74F2C
:104F300080819181009759F4789490E080E0089501
:104F40002F5F3F4F3A962330310501F7F5CFDC0153
:104F500011966D917C917183608341505109538307
:104F60004283FC012193CF0178940895009749F181
:104F7000DC018E91853041F4E091A408F091A50800
:104F80003097F9F0CD0119948530D8F4282F30E00E
:104F9000F8948FEF8C938AE0829FF001839FF00D4D
:104FA0001124EA55F74F8081918112969C938E933C
:104FB0001197B183A0838281938101969383828329
:104FC00078940895CF92DF92EF92FF920F931F9300
:104FD000CF93DF939C018BE695E08C7F41155105C3
:104FE00009F49BC02115310509F497C061157105BD
:104FF00009F493C07A01AB01B9016D5F7F4F6C7FFB
:105000009B012F5F3F4F249F8001259F100D349FF0
:10501000100D1124F8942091C4083091C508232B59
:1050200059F42091CC083091CD082115310569F152
:105030002017310708F058C02091CE083091CF08D2
:10504000232B91F42091CC083091CD08820F931F2F
:105050002091D6083091D7082115310509F441C0B7
:105060002017310708F056C07894CFEFDFEF86EFB6
:105070009FEFF701D183C083DF91CF911F910F91F3
:10508000FF90EF90DF90CF900895C3E0D0E0C09004
:105090006605D090670521E432E02C193D09201700
:1050A000310710F32AE02C9FF0012D9FF00D112401
:1050B000EA55F74F9183808355834483538342831A
:1050C0007783668311870087009709F055DE0C0D02
:1050D0001D1D1093670500936605789490E080E0AD
:1050E000C8CFC4E0D0E0D3CFC3E0D0E02AE02C9F0B
:1050F000F0012D9FF00D1124EA55F74F9183808325
:10510000558344835383428377836683009729F3CF
:1051100033DEE3CFC4E0D0E0E9CF8FEF9FEFACCF39
:105120009C010397029708F069C0F89484E09AE024
:10513000482F50E0241735070CF44DC091E08AE069
:10514000829FF001839FF00D1124EA55F74F1182E1
:10515000108215821482138212821782168299237A
:10516000B1F18091C4089091C508892BA9F42091D0
:10517000CC083091CD082115310571F0809166057C
:1051800090916705821B930B90936705809366054A
:105190001092CD081092CC088091CE089091CF0843
:1051A000892BA9F42091D6083091D7082115310513
:1051B00071F08091660590916705821B930B909327
:1051C0006705809366051092D7081092D6087894E8
:1051D00090E080E00895949FF001959FF00D1124D8
:1051E000EA55F74F40815181452B31F44085518577
:1051F000452B11F481509CCF90E0A1CF8FEF9FEF12
:1052000008954115510549F1009739F1611571056E
:1052100021F1F8942091A2083091A308232BB9F42E
:105220002091A4083091A508232B89F49093A3081A
:105230008093A2087093A5086093A408789425E051
:1052400030E090E080E0FA01318320830895789483
:105250002FEF3FEF86EF9FEFF6CF8FEF9FEF089591
:10526000059769F4F8941092A3081092A20810927E
:10527000A5081092A408789490E080E008958FEF3C
:105280009FEF08956115710519F4F0E0E0E011C099
:105290008530910581F4E091A208F091A308309740
:1052A000A1F3CB0101961995009779F3FC0185E0F4
:1052B0008193CF0108959C0123503109223031059B
:1052C00020F72AE0289FD001299FB00D1124AA556C
:1052D000B74F2D913C911197232BB9F216962D9132
:1052E0003C9117972617370780F2F89412962D9164
:1052F0003C9113972115310529F0ED91FC911197FF
:10530000309711F47894C1CF4181528111965C930A
:105310004E932150310913963C932E93129781930B
:105320007894C7CFECEAF7E086EFDF011D928A950B
:10533000E9F7E8E6F5E084E492E0DF019C011D92E4
:1053400021503040E1F71092670510926605E6EAB9
:10535000F8E082E3DF011D928A95E9F7E2EAF8E0DE
:1053600084E0DF011D928A95E9F790E080E00895DE
:10537000CF93DF93C091A102D091A202CF3FDC076F
:1053800059F45FD49093A2028093A10297FF09C0C1
:10539000D093A202C093A10284EF9FEFDF91CF913F
:1053A000089590E080E0FACF8230910528F4809350
:1053B000D80890E080E008958FEF9FEF08954F9216
:1053C0005F926F927F92AF92BF92CF92DF92EF92F5
:1053D000FF920F931F93CF93DF931F921F92CDB72E
:1053E000DEB71A821982009709F479C06115710538
:1053F00009F475C02091A1023091A20207EF1FEFBE
:105400002F3F3F4F09F445C06B015C01412C512CEB
:105410003201F12CE12C10E000E09E012F5F3F4FA4
:10542000A6014E195F09B5016E0D7F1D8091A10285
:105430009091A2026AD4892B09F04BC089819A818C
:10544000009741F4E114F10429F42091D8082223B3
:1054500009F442C0E80EF91EEC14FD04D0F480E813
:10546000481684E858068EE16806710420F560E06D
:1054700070E0CB010E94D8332AE0420E511C611C1F
:10548000711C0A3F4FEF140721F0043F8FEF1807FC
:10549000A1F4C8010F900F90DF91CF911F910F9150
:1054A000FF90EF90DF90CF90BF90AF907F906F9084
:1054B0005F904F90089501EF1FEF81E090E0013F72
:1054C0002FEF120711F090E080E0892B09F4A5CFAF
:1054D000E0CF04EF1FEFDDCF0AEF1FEFDACF0FEFC2
:1054E0001FEFD7CF4F925F926F927F92AF92BF9292
:1054F000CF92DF92EF92FF920F931F93CF93DF93A0
:105500001F921F92CDB7DEB71A821982009709F455
:1055100079C06115710509F475C02091A10230911F
:10552000A20207EF1FEF2F3F3F4F09F445C06B0169
:105530005C01412C512C3201F12CE12C10E000E0F7
:105540009E012F5F3F4FA6014E195F09B5016E0DF9
:105550007F1D8091A1029091A2028AD3892B09F02C
:105560004BC089819A81009741F4E114F10429F438
:105570002091D808222309F442C0E80EF91EEC1449
:10558000FD04D0F480E4481682E458068FE06806F3
:10559000710420F560E070E0CB010E94D8332AE06E
:1055A000420E511C611C711C0E3F4FEF140721F07D
:1055B000043F8FEF1807A1F4C8010F900F90DF91FF
:1055C000CF911F910F91FF90EF90DF90CF90BF9000
:1055D000AF907F906F905F904F90089502EF1FEF14
:1055E00081E090E0023F2FEF120711F090E080E0A1
:1055F000892B09F4A5CFE0CF04EF1FEFDDCF0EEF2D
:105600001FEFDACF0FEF1FEFD7CF8091A10290915C
:10561000A2028F3F980749F00CD3892B49F48FEFF2
:105620009FEF9093A2028093A10290E080E0089502
:1056300084EF9FEF0895CF92DF92EF92FF920F9346
:105640001F93CF93DF9321E04115510509F020E02E
:105650004150510921112CC0DC01FB01D12CC12C7E
:1056600021E022C03FEFC31AD30A7D010D911D91A5
:10567000E701EA80FB80E016F106A8F42081318181
:10568000E280F380F182E08233832283ED90FC900C
:1056900011979D0122503109E901F982E8821196A2
:1056A0001C930E9320E03296C416D506D8F2D2CFC2
:1056B000DF91CF911F910F91FF90EF90DF90CF90EE
:1056C0000895FC01680F791F90E080E0E617F70766
:1056D00009F408952191820F911DF8CF2091D908E6
:1056E000211113C045DE009791F41092DF0810924B
:1056F000DE081092DD081092DC081092DB08109290
:10570000DA0821E02093D908089584EF9FEF0895E7
:10571000AF92BF92CF92DF92EF92FF920F931F93BF
:10572000CF93DF93009709F460C04630510508F429
:105730005CC02091D908C7EFDFEF222309F449C0EC
:105740008C01060F171FF801C080D180C114D1044D
:1057500009F44EC096012A5F3F4F4217530708F4E1
:1057600047C07C018091DE089091DF08938382839B
:10577000B6016C5F7F4F5801A60EB71EC801A1DFAE
:10578000F5019183808364E070E0C80118DEEC01CC
:10579000892BF9F481E090E007DEB601C801049698
:1057A0000EDEEC01892B91F462E070E0C50107DEAA
:1057B000EC01892B59F4C701D9DB8091DE08909167
:1057C000DF0801969093DF088093DE0890E080E088
:1057D000EBDDCE01DF91CF911F910F91FF90EF9004
:1057E000DF90CF90BF90AF900895CFEFDFEFF1CF74
:1057F000C9EFDFEFEECF6F927F928F929F92AF92C1
:10580000BF92CF92DF92EF92FF920F931F93CF93AD
:10581000DF9300D01F92CDB7DEB7009709F47AC0AE
:105820004115510509F476C02091D90807EF1FEF03
:10583000222309F44DC03A017B015C0164E070E071
:10584000CE0101964FDE8C01892B09F041C0098100
:105850001A810115110509F45AC0480186E0880E25
:10586000911CB701680D791D8091A3029091A4024B
:1058700009DD6C01009709F450C0A70170E060E0F9
:105880000E94463A89819A81AB81BC81EC0CFD1C57
:10589000F70181939193A193B1937F0181E090E00F
:1058A00083DDB801C7011EDE892B31F562E070E0AF
:1058B000C701800F911F16DE8C01892BE9F490E05F
:1058C00080E072DDF501D182C082F3019182808295
:1058D000C8010F900F900F900F90DF91CF911F9103
:1058E0000F91FF90EF90DF90CF90BF90AF909F907F
:1058F0008F907F906F90089590E080E055DDF501E6
:1059000011821082F30111821082C6012FDB09EF90
:105910001FEFDECF0FEF1FEFDBCF06EF1FEFD8CF6C
:105920000097A1F04115510589F02115310571F05D
:10593000F90136966E177F0748F0DC012D933C93F2
:10594000DA01ED93FC9390E080E008958FEF9FEFF4
:105950000895AF92BF92CF92DF92EF92FF920F9392
:105960001F93CF93DF93009709F45FC04115510552
:1059700009F45BC06530710508F457C02091D9085F
:10598000C7EFDFEF222391F1DC01CD90DC9011977E
:105990001296ED91FC9196012A5F3F4FC9EFDFEF20
:1059A0002617370719F5C091DA08D091DB08209740
:1059B00049F521E030E03093DB082093DA087A01E2
:1059C0008C01F093DD08E093DC085601B4E0AB0EE7
:1059D000B11CB50176DE0A0D1B1DF8012081318155
:1059E0008217930729F5D701CD92DC92CE01DF9182
:1059F000CF911F910F91FF90EF90DF90CF90BF90CC
:105A0000AF9008952091DC083091DD082F5F3F4F63
:105A1000CCEFDFEFE217F30790F2CBEFDFEF2E17BB
:105A20003F0768F2D0E0C0E0CACFCFEFDFEFDECFB4
:105A3000C3EFDFEFDBCF84E090E0089582E090E0F9
:105A400008958CEF9FEF089580E290E00895109202
:105A5000DF081092DE081092DD081092DC08109228
:105A6000DB081092DA0890E080E008959093A40299
:105A70008093A30208958091D908882391F0C5DD11
:105A8000009789F41092DF081092DE081092DD086A
:105A90001092DC081092DB081092DA081092D908F4
:105AA000089590E080E00895009749F06115710530
:105AB00031F0FC0111821082FB01118210820895E5
:105AC000F3CF26E030E040E855E260E070E090E09F
:105AD00080E000C01092E1081092E0088930910542
