:1000000005C100000C9423320C944E320C947932CA
:100010000C94A4320C94CF320C94FA320C94253305
:100020000C94503324C1000022C1000020C1000004
:100030001EC100001CC100001AC1000018C1000050
:1000400016C1000014C1000012C1000010C1000060
:100050000EC100000CC100000AC100000C947B33EB
:1000600006C100000C949A370C94D03700C10000F0
:10007000FEC00000FCC00000FAC00000F8C0000094
:10008000F6C00000F4C00000F2C00000F0C00000A4
:100090000C9426380C945C38EAC00000E8C00000DC
:1000A000E6C00000E4C00000E2C00000E0C00000C4
:1000B000DEC00000DCC00000DAC00000D8C00000D4
:1000C000D6C00000D4C000000C94D22D0C94B238DD
:1000D0000C94E838CCC000000C943E390C94743970
:1000E000C6C0000000000A0B02090C0D0E08070331
:1000F00004010000000000000000000000000000FB
:1001000000000000000000000000000000000000EF
:1001100012111000000000000000000000000000AC
:100120000000000000000000000001021020200874
:100130000810204010204080020102010804020142
:1001400001020408102040808040201008040201B1
:10015000800402018040201008040201080402010A
:100160000102040810204080010204081020408091
:1001700005050505070508080808020202020A0A23
:100180000808040404040101010101010101030341
:10019000030303030303040707070C0C0C0C0C0CEC
:1001A0000C0C0202020206060606060606060B0BE9
:1001B0000B0B0B0B0B0B000020002300260029006B
:1001C0002C002F003200000100000301060109018C
:1001D00000002200250028002B002E0031003400F2
:1001E00002010000050108010B01000021002400AC
:1001F00027002A002D003000330001010000040117
:1002000007010A01F937853811399D3911241FBEBC
:10021000CFEFD1E2DEBFCDBF00E00CBF13E0A0E026
:10022000B2E0E2ECF4E700E00BBF02C007900D92F1
:10023000A835B107D9F72CE0A8E5B3E001C01D92BD
:10024000A831B207E1F711E0C6E0D1E000E006C056
:1002500021970109802FFE010E942E3AC230D1075A
:1002600080E00807A9F70E94C42E0C945F3AC8CE1C
:10027000611102C00C94DF356130E1F362E0FACF26
:100280000E94483621E0019709F020E0822F08956E
:10029000CF93DF93882349F0EB0181500E94823491
:1002A00099838883DF91CF910895FB011182108299
:1002B000F9CF0F931F938B019C0183E0369527950F
:1002C000179507958A95D1F70F591C4F462F477000
:1002D00021E030E0F90102C0EE0FFF1F4A95E2F77E
:1002E000AF01F80120812423CB010196211102C026
:1002F00090E080E01F910F9108950F931F938B0161
:100300009C0183E036952795179507958A95D1F737
:10031000677081E090E001C0880F6A95EAF7F80104
:10032000EF59FC4F2081452B31F480958223808347
:100330001F910F910895822BFACFCF92DF92EF9207
:10034000FF92CF93DF936B017C0160E086E3C816D8
:10035000D104E104F10490F486E38C0D0E94DF35B2
:10036000E6012196AE01C701B601C7DFCE01DF91DC
:10037000CF91FF90EF90DF90CF9008958C2DEECF2E
:10038000882341F08150682F70E090E080E050E0D9
:1003900040E0B3CF0895FC01A781B0858C91918591
:1003A0008923A481B5819C914081518162817381AF
:1003B0002681922359F081110BC04F5F5F4F6F4F21
:1003C0007F4F408351836283738308958111F5CFFA
:1003D0004150510961097109F4CF8BE693E0DBCFFD
:1003E00086E793E0D8CF81E893E0D5CF8CE893E01F
:1003F000D2CFFC01A481B5818C9196818923A781FC
:10040000B0859C91408151816281738121859223C5
:1004100059F0882359F04F5F5F4F6F4F7F4F4083F4
:1004200051836283738308958823A9F3415051094E
:1004300061097109F4CF8BE693E0DBCF86E793E0A7
:10044000D8CF81E893E0D5CF8CE893E0D2CF0F935B
:100450001F93CF93DF93D82FC62F8A01A0916A03F1
:100460008BE0A89FD0011124A559BC4F1D921D926D
:100470001D921C92139781E01A968C931A978D2FD8
:1004800090E0FC01E65DFE4FE4911696EC93169722
:10049000FC01E059FE4FE491F0E0EE0FFF1FEA543B
:1004A000FE4F8591949115969C938E931497862F69
:1004B00090E0FC01E65DFE4FE4911996EC931997EC
:1004C000FC01E059FE4FE491F0E0EE0FFF1FEA540B
:1004D000FE4F8591949118969C938E93179760E0A8
:1004E0008D2F0E94DF3560E08C2F0E94DF358091D8
:1004F0006A03813009F43FC0A8F0823009F462C079
:10050000833009F486C080916A0391E0980F90933C
:100510006A03F801808390E080E0DF91CF911F9122
:100520000F91089580E0D23049F081E0D33031F06E
:100530008EEE8D0F8430D8F487E18D1B41E050E0C2
:100540006DEE71E00E94A93180E0C23049F081E097
:10055000C33031F08EEE8C0F843058F487E18C1B61
:1005600041E050E06BE172E00E94A931CCCF8FEF07
:10057000E5CF8FEFF5CF80E0D23049F081E0D33086
:1005800031F08EEE8D0F8430C8F487E18D1B41E091
:1005900050E060EF71E00E94A93180E0C23049F084
:1005A00081E0C33031F08EEE8C0F843048F487E167
:1005B0008C1B41E050E06EE172E0D6CF8FEFE7CFC9
:1005C0008FEFF7CF80E0D23049F081E0D33031F0C7
:1005D0008EEE8D0F8430C8F487E18D1B41E050E032
:1005E00063EF71E00E94A93180E0C23049F081E000
:1005F000C33031F08EEE8C0F843048F487E18C1BD1
:1006000041E050E061E272E0AFCF8FEFE7CF8FEFD4
:10061000F7CF80E0D23049F081E0D33031F08EEE78
:100620008D0F8430C8F487E18D1B41E050E066EF08
:1006300071E00E94A93180E0C23049F081E0C3300E
:1006400031F08EEE8C0F843048F487E18C1B41E052
:1006500050E064E272E088CF8FEFE7CF8FEFF7CF03
:100660009BE0899FF0011124E559FC4F8081918125
:10067000A281B381FB0180839183A283B38390E045
:1006800080E008959BE0899FF0011124E559FC4F1B
:10069000108211821282138290E080E0089590E02F
:1006A00080E00895CF93282F8823E1F0CB01BA0191
:1006B000CFEFC20FEC2FF0E0E956FC4F2081213044
:1006C00059F490580E94C22F9B01AC016C2F70E02E
:1006D00090E080E0CF91A2C00E94BD2F8C2FCF91DF
:1006E0000C94A534CF9108950F931F938B019C0117
:1006F00083E036952795179507958A95D1F7085A7F
:100700001C4F462F477021E030E0F90102C0EE0F88
:10071000FF1F4A95E2F7AF01F80120812423CB01A6
:100720000196211102C090E080E01F910F91089581
:100730000F931F938B019C0183E0369527951795A6
:1007400007958A95D1F7677081E090E001C0880F26
:100750006A95EAF7F801E85AFC4F2081452B31F4FD
:100760008095822380831F910F910895822BFACF69
:100770004F925F926F927F928F929F92AF92BF92B1
:10078000CF92DF92EF92FF920F931F93CF93DF935D
:100790004B015C0129013A01670161E0882D0E944B
:1007A000DF35E4012196AE01C501B401C1DF20E0CF
:1007B00030E0A901C801B6010E94413118168CF43D
:1007C000F401E956FC4F81E08083C801B6010E9424
:1007D000C22F6B01C301B2010E94C22FA601C40146
:1007E00021D0CE01DF91CF911F910F91FF90EF901B
:1007F000DF90CF90BF90AF909F908F907F906F9041
:100800005F904F900895882341F08150682F70E0E9
:1008100090E080E050E040E08BCF0895862FB90152
:100820000C94A5349C01FC01EC51FF4FE491E15084
:10083000E231E0F4F0E08827EF5DFB4F8F4F0C943E
:100840002E3A33043A043D045404690436047E0409
:100850008A048E04A504BA04CF04E604FB0436041B
:10086000100527053C0584B5806884BD60E0822FB3
:100870000C941B3684B58062F8CF809180008C7F09
:1008800082608093800080918100807E8061682BEF
:100890006093810050938700409386008091800090
:1008A000806880938000E2CF809180008C7F82609E
:1008B0008093800080918100807E8061682B6093AE
:1008C0008100509387004093860080918000806271
:1008D000E8CF809180008C7F82608093800080913F
:1008E0008100807E8061682B609381005093870037
:1008F00040938600809180008860D3CF8091B000C3
:1009000080688093B0008091B100887F682B6093ED
:10091000B100ACCF8091B0008062F3CF80919000A5
:100920008C7F82608093900080919100807E8061B6
:10093000682B6093910050939700409396008091AC
:10094000900080688093900091CF809190008C7F80
:1009500082608093900080919100807E8061682BFE
:10096000609391005093970040939600809190007F
:100970008062E8CF809190008C7F826080939000AD
:1009800080919100807E8061682B609391005093EC
:10099000970040939600809190008860D3CF80911B
:1009A000A0008C7F82608093A0008091A100807E57
:1009B0008061682B6093A1005093A7004093A6002C
:1009C0008091A00080688093A00050CF8091A0000B
:1009D0008C7F82608093A0008091A100807E8061E6
:1009E000682B6093A1005093A7004093A6008091CC
:1009F000A0008062E8CF8091A0008C7F826080930D
:100A0000A0008091A100807E8061682B6093A1008E
:100A10005093A7004093A6008091A0008860D3CF98
:100A2000809120018C7F8260809320018091210140
:100A3000807E8061682B6093210150932701409351
:100A40002601809120018068809320010FCF809142
:100A500020018C7F82608093200180912101807E23
:100A60008061682B609321015093270140932601F8
:100A7000809120018062E8CF809120018C7F82608C
:100A80008093200180912101807E8061682B60939A
:100A90002101509327014093260180912001886015
:100AA000D3CF90E080E008950F931F93009709F44F
:100AB00089C06115710509F485C00091800210910B
:100AC000810220918202309183020E3F1F4F2F4FEF
:100AD0003F4F09F068C04FEF5FEFBA0140938002CB
:100AE000509381026093820270938302409180024E
:100AF000509181026091820270918302DC01129612
:100B0000ED91FC9180819181A281B3818093070551
:100B100090930805A0930905B0930A0584819581F7
:100B2000A681B7818093030590930405A0930505E2
:100B3000B093060580859185A285B3858093FF04D7
:100B400090930005A0930105B093020584859585D7
:100B5000A685B7858093FB049093FC04A093FD04C5
:100B6000B093FE041092F7041092F8041092F90466
:100B70001092FA040E946F1184E991E19093DE03D0
:100B80008093DD039093E0038093DF030E945E1067
:100B9000009731F421E030E030930C0520930B05F1
:100BA0001F910F9108950091800210918102209170
:100BB000820230918302DB010D931D932D933C93B0
:100BC000139794CF8FEF9FEFEBCF8F929F92AF92BF
:100BD000BF92CF92DF92EF92FF921F93CF93DF935A
:100BE0004B015C0110910E0582E090E090930C05A2
:100BF00080930B0581149104A104B10441F4809108
:100C00000E05811104C080910D05C1E08111C0E085
:100C1000C12CD12C760180910E05811106C08091E6
:100C20000D05811102C0CC23D9F083E090E09093B0
:100C30000C0580930B05CC2381F1CCE9DFEF11117A
:100C400002C00E94F914CE01DF91CF911F91FF9055
:100C5000EF90DF90CF90BF90AF909F908F900895CE
:100C60006AE070E080E090E00E94EA3380E1C80E24
:100C700087E2D81EE11CF11C8FEF88169806A806A3
:100C8000B80631F0C1E08C149D04AE04BF0408F036
:100C9000C0E080E00E949210BECFD0E0C0E0CFCF95
:100CA000CF92DF92EF92FF920F931F93CF93DF9338
:100CB0008F3F910511F008F051C020910B05309144
:100CC0000C052330310539F020910B0530910C05CE
:100CD0002130310531F424E030E030930C052093CD
:100CE0000B056A017B01EC0182309105A8F011E04F
:100CF000AE01C701B6010E945D10AB01BC01CE017F
:100D00001123F9F0DF91CF911F910F91FF90EF9098
:100D1000DF90CF900C9425178C01000F111F035208
:100D20001C4FD8018D919C91892B09F30E942F179C
:100D30000297E9F6D801ED91FC91CE011995182F93
:100D4000D7CF0E94471790E080E0DF91CF911F91AD
:100D50000F91FF90EF90DF90CF9008958FEF9FEF6E
:100D6000F4CF80E00C949210CF93DF9386E090E074
:100D700090930C0580930B050E94EB10EC01EDEDB8
:100D8000F3E084E0DF011D928A95E9F70E94911457
:100D900010920C0510920B05CE01DF91CF910895B2
:100DA00080910D0508958091F60408956093800266
:100DB00070938102809382029093830290E080E09E
:100DC0000895EF92FF920F931F93CF93DF93C091FB
:100DD0009004D091910489ECE82E8BE0F82EF70175
:100DE00020813181428153816091340270913502BA
:100DF00080913602909137020E94453101ED1BE04F
:100E0000F80120813181428153810E94552F6883EE
:100E100079838A839B83F7012481358146815781B9
:100E200060914C0270914D0280914E0290914F0260
:100E30000E944531F80124853585468557850E94F5
:100E4000552F6C837D838E839F83DF91CF911F917C
:100E50000F91FF90EF9008954F925F926F927F9263
:100E60008F929F92AF92BF92CF92DF92EF92FF92BA
:100E70000F931F93CF93DF9300D01F92CDB7DEB7B0
:100E80008091CD049091CE048130910509F052C437
:100E90006091B9047091BA048091BB049091BC0434
:100EA0006F5F7F4F8F4F9F4F0E94EE2F2091BD04A9
:100EB0003091BE044091BF045091C0040E9445315E
:100EC000609311047093120480931304909314049C
:100ED000C0902402D0902502E0902602F0902702D4
:100EE000A701960160917C0B70917D0B80917E0B28
:100EF00090917F0B0E94B92F882341F0C0927C0B08
:100F0000D0927D0BE0927E0BF0927F0B80917B0B59
:100F1000811110927B0BBE016F5F7F4F8091800B20
:100F20009FDB69817A818B819C810E94F02F2091C7
:100F30002C0230912D0240912E0250912F020E94DE
:100F4000453120913002309131024091320250916E
:100F500033020E9445316B017C01C092D10BD092CB
:100F6000D20BE092D30BF092D40B2091C90B3091AD
:100F7000CA0B4091CB0B5091CC0B60913802709111
:100F8000390280913A0290913B020E94453120E063
:100F900030E0A9010E94552F4B015C0120913C02D9
:100FA00030913D0240913E0250913F02C701B6018F
:100FB0000E9445319B01AC01C501B4010E94552F2F
:100FC0006093D50B7093D60B8093D70B9093D80B6F
:100FD000C0902802D0902902E0902A02F0902B02C3
:100FE000A70196016091700B7091710B8091720B4B
:100FF0009091730B0E94B92F882341F0C092700B1F
:10100000D092710BE092720BF092730B80916F0B88
:10101000811110926F0BBE016F5F7F4F8091740B37
:101020001FDB69817A818B819C810E94F02F209146
:1010300040023091410240914202509143020E948D
:101040004531209144023091450240914602509131
:1010500047020E9445316093D90B7093DA0B80935D
:10106000DB0B9093DC0B20914802309149024091B8
:101070004A0250914B020E94552F6B017C01C09295
:10108000DD0BD092DE0BE092DF0BF092E00B2091B3
:10109000CD0B3091CE0B4091CF0B5091D00B609186
:1010A00050027091510280915202909153020E941D
:1010B000453120E030E0A9010E94552F4B015C0131
:1010C000209154023091550240915602509157029E
:1010D000C701B6010E9445319B01AC01C501B401B5
:1010E0000E94552F6093E10B7093E20B8093E30B0A
:1010F0009093E40BC0901402D0901502E090160279
:10110000F0901702A70196016091890B70918A0BEC
:1011100080918B0B90918C0B0E94B92F882341F00A
:10112000C092890BD0928A0BE0928B0BF0928C0BC1
:1011300088E0A6D88093FD0B882309F412C3209180
:10114000D10B3091D20B4091D30B5091D40B6091C5
:101150000C0270910D0280910E0290910F020E947C
:1011600045316B017C012091D50B3091D60B40911C
:10117000D70B5091D80B60910802709109028091B1
:101180000A0290910B020E9445319B01AC01C701FC
:10119000B6010E94552F6B017C012091DD0B30912F
:1011A000DE0B4091DF0B5091E00B609104027091D7
:1011B000050280910602909107020E9445319B0131
:1011C000AC01C701B6010E94552F6B017C01209133
:1011D000E10B3091E20B4091E30B5091E40B6091F5
:1011E00000027091010280910202909103020E941C
:1011F00045319B01AC01C701B6010E94552F2091DA
:1012000010023091110240911202509113020E947B
:1012100045316093E50B7093E60B8093E70B909359
:10122000E80B2091E50B3091E60B4091E70B5091D4
:10123000E80B60915C0270915D0280915E0290917A
:101240005F020E944531209160023091610240911D
:101250006202509163020E9445314B015C01C090D3
:101260006402D0906502E0906602F09067029B01F4
:10127000AC01C701B6010E94B92F87FD12C0C09012
:101280006802D0906902E0906A02F0906B029401CB
:10129000A501C701B6010E944131181614F064017E
:1012A000750180906C0290906D02A0906E02B090DB
:1012B0006F02A70196015F77C501B4010E94542F08
:1012C0002B013C01A701960160917002709171029F
:1012D00080917202909173020E94B92F18160CF43B
:1012E00051C2C501B4010E942B304B015C01E2D513
:1012F00081114BC2C501B40198D5811146C220E0CD
:1013000030E040E853E4C501B4010E9445304B0190
:101310005C0120E030E0A9010E94B92F87FF38C2AC
:10132000C501B40190580E94C22F61956093FB0BD8
:1013300066E070E080E090E0D7D95C019093C00B4C
:101340008093BF0B6091FB0B70E090E080E00E9407
:10135000EE2FAB01BC01C501A5D9A7019601609193
:1013600074027091750280917602909177020E94CA
:10137000B92F18160CF411C2C301B2010E942B3010
:101380006B017C0197D5811111C2C701B6014DD502
:1013900081110CC220E030E040E853E4C701B601FF
:1013A0000E9445306B017C0120E030E0A9010E94E1
:1013B000B92F87FFFEC1C701B60190580E94C22F06
:1013C00061956093FC0B67E070E080E090E08CD961
:1013D0007C019093B80B8093B70B6091FC0B70E08D
:1013E00090E080E00E94EE2FAB01BC01C7015AD90A
:1013F000E090CD04F090CE042091D90B3091DA0B1F
:101400004091DB0B5091DC0B609178027091790276
:1014100080917A0290917B020E9445316093E90BA2
:101420007093EA0B8093EB0B9093EC0B2091D10B14
:101430003091D20B4091D30B5091D40B60917C0230
:1014400070917D0280917E0290917F020E944531D1
:101450006093ED0B7093EE0B8093EF0B9093F00B7A
:10146000EA94EF2809F08AC0C0901802D0901902BF
:10147000E0901A02F0901B02A70196016091AD0B5B
:101480007091AE0B8091AF0B9091B00B0E94B92F71
:10149000882341F0C092AD0BD092AE0BE092AF0B1F
:1014A000F092B00B66E370E080E090E00E9459019A
:1014B0009093AC0B8093AB0B43E050E069EF7BE083
:1014C0000E944801C0901C02D0901D02E0901E02B4
:1014D000F0901F02A70196016091A10B7091A20BE1
:1014E0008091A30B9091A40B0E94B92F882341F007
:1014F000C092A10BD092A20BE092A30BF092A40B8E
:1015000067E370E080E090E00E9459019093A00BA7
:1015100080939F0B43E050E067EF7BE00E9448011F
:10152000C0902002D0902102E0902202F09023028D
:10153000A70196016091950B7091960B8091970B86
:101540009091980B0E94B92F882341F0C092950B7F
:10155000D092960BE092970BF092980B68E370E0B4
:1015600080E090E00E9459019093940B8093930B3C
:1015700043E050E065EF7BE00E944801E091D00439
:10158000F091D10480819181A281B3818093F10B8C
:101590009093F20BA093F30BB093F40B8091CD04D6
:1015A0009091CE04019759F44091C1045091C20426
:1015B0006091C3047091C40481E090E071DB0091FC
:1015C000CD041091CE040130110509F09EC0409069
:1015D0001104509012046090130470901404E09170
:1015E0001504F091160480809180A280B380E09170
:1015F0004504F0914604E080F180E0910904F09107
:101600000A04C080D180E0910704F091080411829F
:101610001082E0913F04F0914004D182C082D1DB7E
:10162000E0914104F09142040190F081E02D40826C
:10163000518262827382F60120813181428153811D
:10164000C501B4010E9445319B01AC01F7016081E5
:101650007181828193810E94552FF701608371838C
:1016600082839383F6012481358146815781C501A8
:10167000B4010E9445319B01AC01F7016481758181
:10168000868197810E94552FF70164837583868335
:101690009783E0910704F0910804118300838091FF
:1016A000B9049091BA04A091BB04B091BC04019616
:1016B000A11DB11D8093B9049093BA04A093BB04FB
:1016C000B093BC048091110490911204A091130472
:1016D000B0911404E091D004F091D10480839183FF
:1016E000A283B3838091C1049091C204A091C304EA
:1016F000B091C4040196A11DB11D8093C1049093C3
:10170000C204A093C304B093C4040F900F900F9031
:101710000F90DF91CF911F910F91FF90EF90DF908D
:10172000CF90BF90AF909F908F907F906F905F9081
:101730004F900895892B09F0CBCBE0914104F091B3
:1017400042040190F081E02D80819181A281B381DA
:10175000E091D004F091D10480839183A283B3837C
:10176000B7CB8091580290915902A0915A02B09142
:101770005B028093E50B9093E60BA093E70BB0938D
:10178000E80B4FCDC301B201AECD812C912C540199
:10179000C501B4010E94C22FC9CD60916C02709145
:1017A0006D0280916E0290916F02E8CDC12CD12C18
:1017B0007601C701B6010E94C22F03CE4F925F92FD
:1017C0006F927F92AF92BF92DF92EF92FF920F9350
:1017D0001F93CF93DF9384E090E0F0D2E1E0F4E058
:1017E000CDECD4E0D783C68380ED94E0909342049F
:1017F000809341040DEB14E0158B048B20E934E059
:1018000037AF26AF6AE874E07093460460934504EE
:1018100021EB34E0309344042093430423EB34E081
:1018200030934804209347042CE834E030934A0472
:10183000209349042EE834E030934C0420934B0469
:1018400042E954E05093880440938704F0936C0479
:10185000E0936B04F583E48321E030E0398328834F
:1018600010928204109289042FE934E0A7E9B4E0D1
:10187000E901B983A883C9ECDBE0DB01CD93DC93FC
:1018800067E67BE0DA016D937C931092C5041092B9
:10189000C6041092C7041092C804318720872AEB2F
:1018A00032E03387228722ED34E0DC012D933C9334
:1018B00040E050E060E87FEB4093C9045093CA04D5
:1018C0006093CB047093CC044AE057ED63EA7BE36A
:1018D000D8014D935D936D937C93139741EA54E047
:1018E00085E4482E8FE5582E83E2682E8CE4782E0E
:1018F000DA014D925D926D927C92139785EB91EC9B
:10190000ADE3BBEE8093A5049093A604A093A70437
:10191000B093A8048FEA92E3A7EEBAE18093A904FA
:101920009093AA04A093AB04B093AC048DEE91E223
:10193000A4EFB3EA8093AD049093AE04A093AF04F8
:10194000B093B004A5EFB3E0B383A283E1EEF3E07C
:101950001196FC93EE938FEB92E0918380839383B7
:1019600082839583848397838683918780879387F7
:1019700082879587848797878687918B808B938BC7
:10198000828B87EB94E015969C938E931497139615
:101990005C934E93129717963C932E93169718824A
:1019A00019821A821B821C821D821E821F82C9E636
:1019B000DBE01F8A1C8690E0A92E92E0B92EF5018B
:1019C00084A195A1A6A1B7A18B8B9C8BAD8BBE8B5F
:1019D000412C512C320143944D865E866F86788A65
:1019E00040E85BE063E082E00E942702DD24D394BC
:1019F000D98A1A8A8F890E9442031B861882F501B0
:101A000080A591A5A2A5B3A58F839887A987BA873A
:101A100049825A826B827C8244E75BE063E182E127
:101A20000E942702DD821E828B850E944203188E4F
:101A3000F50184899589A689B78988A399A3AAA362
:101A4000BBA3498E5A8E6B8E7C8E60E088E00E942C
:101A50003801DD8E1092B90B4092BA0B5092BB0B3D
:101A60006092BC0B7092BD0BE12CF12C8701A80198
:101A7000970166E070E080E090E00E94B8039093E8
:101A8000C00B8093BF0BD092BE0B1092B10B409253
:101A9000B20B5092B30B6092B40B7092B50BA801CD
:101AA000970167E070E080E090E00E94B8039093B7
:101AB000B80B8093B70BD092B60B1CAEF501808D9E
:101AC000918DA28DB38D8093AD0B9093AE0BA093AF
:101AD000AF0BB093B00B4092A60B5092A70B609245
:101AE000A80B7092A90B66E370E080E090E00E9482
:101AF0009D019093AC0B8093AB0BD092AA0B18AACC
:101B0000F501848D958DA68DB78D88AF99AFAAAF5D
:101B1000BBAF49AA5AAA6BAA7CAA67E370E080E02F
:101B200090E00E949D019FAB8EABDDAA1CA2F50147
:101B300080A191A1A2A1B3A18CA79DA7AEA7BFA789
:101B40004DA25EA26FA278A668E370E080E090E00C
:101B50000E949D019BA78AA7D9A6DF91CF911F91D3
:101B60000F91FF90EF90DF90BF90AF907F906F90BC
:101B70005F904F9008958091750B811114C081E0A2
:101B80008093750B8091760B9091770BA091780BD9
:101B9000B091790B0197A105B10529F480917A0BD9
:101BA00081110E944F038091690B811114C081E063
:101BB0008093690B80916A0B90916B0BA0916C0BD9
:101BC000B0916D0B0197A105B10529F480916E0BC1
:101BD00081110E944F038091810B811103C081E02C
:101BE0008093810B8091B90B81112EC081E080938D
:101BF000B90B8091BA0B9091BB0BA091BC0BB0912B
:101C0000BD0B0197A105B105F9F48091BE0B8823A6
:101C1000D9F066E070E080E090E00E947403909359
:101C2000C00B8093BF0B40E050E0BA010E9452030A
:101C300066E070E080E090E00E9474039093C00B37
:101C40008093BF0B0E9403048091B10B81112EC0C1
:101C500081E08093B10B8091B20B9091B30BA09176
:101C6000B40BB091B50B0197A105B105F9F48091C2
:101C7000B60B8823D9F067E070E080E090E00E9426
:101C800074039093B80B8093B70B40E050E0BA0117
:101C90000E94520367E070E080E090E00E947403CD
:101CA0009093B80B8093B70B0E9403048091A50B0F
:101CB00081111FC081E08093A50B8091A60B9091AC
:101CC000A70BA091A80BB091A90B0197A105B10595
:101CD00081F48091AA0B882361F066E370E080E0D4
:101CE00090E00E9459019093AC0B8093AB0B0E9443
:101CF000C0018091990B81111FC081E08093990BE5
:101D000080919A0B90919B0BA0919C0BB0919D0B95
:101D10000197A105B10581F480919E0B882361F0A4
:101D200067E370E080E090E00E9459019093A00B7F
:101D300080939F0B0E94C00180918D0B81111FC069
:101D400081E080938D0B80918E0B90918F0BA091F1
:101D5000900BB091910B0197A105B10581F4809191
:101D6000920B882361F068E370E080E090E00E94CD
:101D700059019093940B8093930B0C94C001089598
:101D800060E070E080E89FE7089560E070E080E840
:101D90009FE7089560E070E080E89FEF089560E0BD
:101DA00070E080E89FEF089560E070E080EC9FEFC6
:101DB000089560E070E080EC9FEF0895F5DF609398
:101DC0000A0C70930B0C80930C0C90930D0CF1DFAC
:101DD0006093FE0B7093FF0B8093000C9093010CAB
:101DE000CFDF6093060C7093070C8093080C9093E0
:101DF000090CCBDF6093020C7093030C8093040CEE
:101E00009093050CC7DF60930E0C70930F0C8093BA
:101E1000100C9093110CC3DF6093120C7093130C91
:101E20008093140C9093150C0895CF92DF92EF924B
:101E3000FF92CF936B017C01AC019B016091060C7A
:101E40007091070C8091080C9091090C0E94B92F99
:101E5000C1E0882371F0A701960160910E0C70918A
:101E60000F0C8091100C9091110C0E94B92F8111D0
:101E7000C0E08C2FCF91FF90EF90DF90CF9008952E
:101E80000F931F938B019C010027112720783F7728
:101E90000115110520483F4749F4AB01BC016F779C
:101EA000772781E0452B462B472B09F480E01F91D3
:101EB0000F910895E5CF4F925F926F927F928F922C
:101EC0009F92AF92BF92CF92DF92EF92FF920F93C9
:101ED0001F93F8944090E6045090E7046090E80463
:101EE0007090E904C090DA04D090DB04E090DC0448
:101EF000F090DD044130510509F0A4C09B01AC0114
:101F0000241935094609570929013A010091E204CB
:101F10001091E3042091E4043091E5044801590153
:101F2000840C951CA61CB71C80169106A206B3064D
:101F3000A0F40091DE041091DF042091E0043091C0
:101F4000E1040F5F1F4F2F4F3F4F0093DE041093AC
:101F5000DF042093E0043093E1048092E204909245
:101F6000E304A092E404B092E5040091DE04109131
:101F7000DF042091E0043091E1048092EA04909221
:101F8000EB04A092EC04B092ED040093EE041093E5
:101F9000EF042093F0043093F1046093E60470930F
:101FA000E7048093E8049093E904A8E8B3E1A3016F
:101FB00092010E94363A6C0D7D1D8E1D9F1D60930F
:101FC000DA047093DB048093DC049093DD040091C9
:101FD00080021091810220918202309183020F3F92
:101FE0001F4F2F4F3F4FF1F000918002109181025F
:101FF00020918202309183020E3F1F4F2F4F3F4F9F
:1020000089F0C0908002D0908102E0908202F0902E
:10201000830221E08C149D04AE04BF0408F420E088
:102020002093F60478941F910F91FF90EF90DF902A
:10203000CF90BF90AF909F908F907F906F905F9068
:102040004F9008954B015C0184189508A608B708C5
:10205000A3019201261B370B480B590B641575051C
:1020600086059705D0F082169306A406B50640F4BF
:1020700020E030E0A90181149104A104B10491F49D
:10208000A8E8B3E10E94363AA7019601261B370B58
:10209000480B590BCA01B901C5CF82169306A40695
:1020A000B50670F7A8E8B3E1A50194010E94363A9D
:1020B0006C0D7D1D8E1D9F1DB5CFFDCECF93DF9383
:1020C00000D01F92CDB7DEB71C821B821A82198204
:1020D0001092F2041092F3041092F4041092F5049A
:1020E000BE016F5F7F4FCE0103960E94662D69810E
:1020F0007A818B819C810E945426009761F4BE01F5
:102100006F5F7F4FCE0103960E94722D69817A81A5
:102110008B819C8132D50F900F900F900F90DF91A3
:10212000CF910895FF920F931F93CF93DF93082FC2
:1021300060E070E0CB010E94EA33FF24F3940E9438
:102140003D25EC01892B89F010E0CE3F8FEFD807B9
:1021500069F0002361F160E070E0CB010E94EA3396
:1021600081E090E0892B59F322C011E029D5EC01E0
:10217000892B21F0CE3F8FEFD80759F711111EC0E0
:1021800011E0229609F410E00E94ED24EC01892B65
:1021900021F0CE3F8FEFD807E1F6111111C011E009
:1021A000CE3F8FEFD80709F410E001110BC0CE012C
:1021B000DF91CF911F910F91FF90089511E0E4CF2F
:1021C00011E0F3CF60E070E0CB010E94EA331F25FD
:1021D000812F90E0C7CFCF93DF938091F6048823BF
:1021E00021F060E070E0CB0150D639D6D0E0C0E0FD
:1021F000892B71F06AE070E080E090E00E94EA33A1
:1022000081E090DF2CD62196C03D27E0D20781F7F0
:102210002BD60E94A82610920E0510920D05109242
:102220000705109208051092090510920A051092F0
:1022300003051092040510920505109206051092F0
:10224000FF041092000510920105109202051092F1
:10225000FB041092FC041092FD041092FE041092F4
:10226000F7041092F8041092F9041092FA044EEF59
:102270005FEF6FEF7FEF4093800250938102609396
:102280008202709383021092F604EAEEF4E028E0F2
:10229000DF011D922A95E9F71092E6041092E704F7
:1022A0001092E8041092E9041092E2041092E30400
:1022B0001092E4041092E5041092DE041092DF0400
:1022C0001092E0041092E1041092DA041092DB0400
:1022D0001092DC041092DD04DF91CF9108951092EA
:1022E0001A0510921B0510921C0510921D051092E4
:1022F00019058091220590912305909318058093EC
:1023000017051092160510921505109211051092DE
:102310001205109213051092140510921F051092C9
:102320001E0590E080E00895CF92DF92EF92FF9239
:102330000F931F93CF938C01019709F055C0209103
:102340002205309123058091170590911805409141
:10235000220550912305509318054093170528171F
:10236000390781F01092160510921505109211058B
:1023700010921205109213051092140510921F0569
:1023800010921E058091220590912305019761F519
:1023900080911E0590911F05892B21F48091840264
:1023A000811112C080911E0590911F050197E1F4E3
:1023B0008091110590911205A0911305B09114051B
:1023C0000197A105B10581F4109211051092120533
:1023D00010921305109214051092840282E090E08E
:1023E00090931F0580931E058091220590912305EF
:1023F000019709F01CC1809138059091390580172B
:10240000910709F014C18091340590913505A09190
:102410003605B0913705009709F409C120913305BD
:1024200021110DC04091340550913505609136055C
:1024300070913705452B462B472B09F4F8C02091A6
:102440001E0530911F052230310509F0F0C02091A2
:1024500015052111ECC0FC01C080D180E280F38021
:1024600080911905882309F4D3C0809125059091A6
:102470002605892B09F4FEC02091250530912605FB
:1024800081E02230310509F080E02091250530916E
:102490002605C1E02130310549F020912505309114
:1024A0002605C1E02230310509F0C0E0882309F497
:1024B00056C020912F053091300540913105509143
:1024C0003205C701B6010E94413187FD14C0209139
:1024D0002F053091300540913105509132056091C2
:1024E0001A0570911B0580911C0590911D050E9495
:1024F000B92F87FD22C020912F05309130054091E2
:10250000310550913205C701B6010E9441311816BC
:1025100034F520912F0530913005409131055091CF
:10252000320560911A0570911B0580911C059091F0
:102530001D050E94B92F811112C08091270590912D
:102540002805A0912905B0912A05892B8A2B8B2B70
:1025500019F481E08093160581E080931505CC2362
:1025600009F456C020912F05309130054091310576
:1025700050913205C701B6010E94B92F87FF14C0E0
:1025800020912F0530913005409131055091320551
:1025900060911A0570911B0580911C0590911D0595
:1025A0000E94413187FF22C020912F0530913005D4
:1025B0004091310550913205C701B6010E94B92FF3
:1025C000811126C020912F053091300540913105B1
:1025D0005091320560911A0570911B0580911C0580
:1025E00090911D050E944131181694F480912705A1
:1025F00090912805A0912905B0912A05892B8A2B55
:102600008B2B19F481E08093160581E080931505EA
:1026100081E090911505911180E080931905C09299
:102620001A05D0921B05E0921C05F0921D050130A1
:10263000110509F067C180911E0590911F05892B36
:10264000D9F41092240510921505809184028823F4
:1026500079F082E090E090931F0580931E05109220
:102660008402209122053091230581E0232BE9F09B
:1026700080E01BC081E009CF109284028091240584
:10268000882349F01092160510921F0510921E051E
:1026900010922405EDCF8091220590912305892B7E
:1026A000E1F0809115051092150520911E053091DD
:1026B0001F052230310509F45EC088F4211531056B
:1026C00009F448C02130310509F4F3C01092160511
:1026D000109215051092240538C081E0E6CF233012
:1026E000310509F4B1C02430310581F7409111055D
:1026F0005091120560911305709114054115510513
:102700006105710561F041505109610971094093FA
:1027100011055093120560931305709314054091B1
:102720001105509112056091130570911405452B08
:10273000462B472BD9F420912005309121052130DB
:10274000310509F046C01092160510921F0510922F
:102750001E050CC080918402882341F082E090E045
:1027600090931F0580931E051092840210920F050E
:1027700080911605CEC08823C9F3809127059091DA
:102780002805A0912905B0912A05181619061A06E0
:102790001B060CF07DC080912205909123050197C6
:1027A00009F076C08091270590912805A091290510
:1027B000B0912A058093110590931205A0931305FB
:1027C000B093140583E090E090931F0580931E055D
:1027D000CDCF40912B0550912C0560912D05709126
:1027E0002E05452B462B472BA9F0109216058091FC
:1027F0002B0590912C05A0912D05B0912E0580936D
:10280000110590931205A0931305B093140581E070
:1028100090E0DACF882399F080918502909186022A
:10282000A0918702B09188028093110590931205C0
:10283000A0931305B093140584E090E0C5CF1092E7
:10284000160582E090E0C0CF8091110590911205AD
:10285000A0911305B09114050097A105B10559F099
:102860000197A109B1098093110590931205A093D6
:102870001305B09314058091110590911205A09154
:102880001305B0911405892B8A2B8B2B09F06ECF81
:102890008091850290918602A0918702B091880272
:1028A000892B8A2B8B2B09F44ECF81E08093160560
:1028B000B3CF4091110550911205609113057091AD
:1028C0001405411551056105710561F0415051092B
:1028D0006109710940931105509312056093130526
:1028E00070931405409111055091120560911305E4
:1028F00070911405452B462B472B09F037CF8111DA
:10290000C7CF9FCF80910F05882309F431CF8091E5
:102910001005CF911F910F91FF90EF90DF90CF9016
:10292000089510921A0510921B0510921C05109222
:102930001D051092190510921F0510921E05109288
:10294000180510921705109239051092380510924B
:10295000160510921505109211051092120510928D
:102960001305109214051092100510920F05109285
:1029700034051092350510923605109237051092E5
:10298000330510922F0510923005109231051092E8
:10299000320588EE93E0A0E0B0E08093850290934A
:1029A0008602A0938702B093880210922B051092A2
:1029B0002C0510922D0510922E05109227051092CD
:1029C00028051092290510922A05109226051092CA
:1029D000250581E08093840210922405109223053E
:1029E00010922205109221051092200590E080E0BF
:1029F00008958091220590912305892B19F58091E6
:102A00008402882351F080912405811106C081E061
:102A10008093100580930F0508952091240530912F
:102A2000840281E090E0332311F090E080E030E018
:102A300082239323892B21F01092100581E0EACFA5
:102A400010920F05089582E090E0FA01918380834F
:102A50008FEF9FEF0895CF93DF93EA01009711F076
:102A60000E94C8271982188290E080E0DF91CF9100
:102A70000895DB01009719F48FEF8C9308952EEFE2
:102A80002C93FC017096E031F10508F037C08827DF
:102A9000E35BFA4E8F4F0C942E3A7C157A1578151D
:102AA0007615741572156E1570156C156A15681506
:102AB000651561155D1563157E1580E311968C9380
:102AC000089589E2FBCF82E2F9CF11961C92089516
:102AD00083E2F4CF81E2F2CF81E1F0CF87E2EECF63
:102AE0008AE2ECCF80E1EACF84E2E8CF88E2E6CF69
:102AF00086E2E4CF81E3E2CF83E3E0CF80E2DECF82
:102B000080914605909147050895909347058093DD
:102B10004605089580914505089590914505892BB6
:102B2000809345050895982F9095809145058923B8
:102B3000809345050895809144050895809142054C
:102B40009091430508956115710559F0FB0130E03E
:102B500020E070E060E02417350719F06115710579
:102B600011F0CB010895A081B181A817B90709F42C
:102B7000BF012F5F3F4F3696EECF80914805811100
:102B80001CC060D266D290933B0580933A050E94A8
:102B9000C61F0E94D81F90933F0580933E050E9458
:102BA00055240E945C2490933D0580933C0581E070
:102BB0008093480590E080E0089584EF9FEF0895AA
:102BC0008F929F92AF92BF92CF92DF92EF92FF923D
:102BD0000F931F93CF93DF9300D000D000D01F92AC
:102BE000CDB7DEB71A86198618861F821E821D820F
:102BF0001C821B821A8219828091480507EF1FEF01
:102C0000882309F49CC08E010D5F1F4F9E012B5F2E
:102C10003F4FAE01495F5F4FBE01675F7F4F90E05E
:102C200080E00E94D9258C01009721F0059602973B
:102C300008F0DBC029853A852115310509F402C168
:102C4000ED80FE804B815C81B701640F751F8F8121
:102C500098858617970708F4F5C0E20EF31ED70192
:102C60009C91903C09F07FC04230510508F47BC034
:102C700011968C914091460550914705452B09F4DA
:102C80009CC0913F08F071C02CE1290F2D3008F451
:102C90008BC02DE2290F203108F489C0903C21F42B
:102CA0008150823008F483C088E3890F8B3008F4A8
:102CB00081C099E3C92E95E1D92EE3E2F5E16D815A
:102CC0007E81AE014F5F5F4F89859A8519955C01C2
:102CD000C114D104A1F189809A808114910479F101
:102CE0008B819C818815990508F487C010E000E06D
:102CF0004B815C8170E060E0C7010E94583A011589
:102D00001105E9F449815A8169857A858D819E8111
:102D1000680F791FC501F6011995E980FA800D81C8
:102D20001E812F81388549855A856FEF7FEF81E0BD
:102D300090E00E9474258C01892B09F056C0C801CF
:102D40002A960FB6F894DEBF0FBECDBFDF91CF91AC
:102D50001F910F91FF90EF90DF90CF90BF90AF90B9
:102D60009F908F90089580E085CF30E020E0220F83
:102D7000331FF901E65CFA4F0190F081E02D3097A6
:102D800009F497CF892F90E01995009709F491CF16
:102D9000DC011296ED91FC9113971496CD90DC9086
:102DA000309709F08CCF1FC021E030E0E0CF22E067
:102DB00030E0DDCF23E030E0DACFD12CC12CEBE2E4
:102DC000F5E19F3F09F07BCFE0913A05F0913B059B
:102DD000309721F4C90104EF1FEF0CC08FEF90E092
:102DE00019950097A9F604EF1FEF89859A8500973A
:102DF00009F4A5CF0E94C827A2CF0E94A3268C0168
:102E000089859A850E94C82770E060E0C4010E940D
:102E10003C2698878F830E9471259E838D836F81C6
:102E200078856115710559F0C8010E9454299A8767
:102E3000898706EF1FEF892B09F058CF59CF08EF8C
:102E40001FEF56CF08EF1FEFD0CF20914805222368
:102E500019F020E00C94DD1F87EF9FEF089580911B
:102E600046059091470508950E9461240E94BB2366
:102E7000F5D0EAE3F5E088E0DF011D928A95E9F7F5
:102E80001092480590E080E008950C94192221E00A
:102E900040E050E0BA010C94DD1F86E090E0FA01BA
:102EA0009183808390E080E0089547E050E062ECF9
:102EB00072E049CEDF92EF92FF920F931F93CF9370
:102EC000DF938A01EC01C60FD71FE0904C05F0900C
:102ED0004D05D9800E948B26D816190678F082E01D
:102EE00090E0F801918380838EEF9FEFDF91CF9187
:102EF0001F910F91FF90EF90DF900895EF2841F41C
:102F000082E090E0F8019183808384EF9FEFEECF21
:102F1000898180934B0590E00196F801918380832D
:102F200090E080E0E3CFCF93DF93EA010E94CA22D2
:102F3000882321F00E9498260E94CB2282E090E014
:102F4000998388838BEF9FEFDF91CF910895CF9383
:102F5000DF93EB0186E0FB0111928A95E9F78FEF91
:102F60008883D8DD8983E7DD8A83E8DD9D838C83D0
:102F7000DF91CF910895CF93DF93EA010E94CD2294
:102F8000811109C082E090E09983888385EF9FEFEB
:102F9000DF91CF91089590E080E0B7DD81E090E08F
:102FA0009983888390E080E0F3CF0F931F93CF93B2
:102FB000DF93EA018C01060F171F0E94CD228111B9
:102FC0000BC082E090E09983888385EF9FEFDF91CB
:102FD000CF911F910F910895F8018181823038F0CF
:102FE00082E090E0998388838EEF9FEFF0CF81E0BD
:102FF00090E08BDD88E090E09983888390E080E02A
:10300000E6CFCF93DF930097D1F4EB01FB0132962B
:1030100086E0DF011D928A95E9F78FEF888385E0CE
:1030200089831A820E948B268B830E948A269D8325
:103030008C8381E08E838F83DF91CF910895DF9120
:10304000CF9117CD85E597E190934A058093490587
:1030500008958091490590914A05089510924A0576
:1030600010924905089580914C0590914D05089561
:10307000411105C0611571058105910561F06093ED
:103080004C0570934D0580934E0590934F054093EA
:10309000500581E0089580E00895FF920F931F93FB
:1030A000CF93DF938A01EC01C60FD71FF9800E94EE
:1030B0008B26F816190668F082E090E0F8019183FB
:1030C00080838EEF9FEFDF91CF911F910F91FF9043
:1030D00008956C817D818E819F814B81C9DF811133
:1030E00008C082E090E0F8019183808384EF9FEF35
:1030F000EACF898180934B0590E00196F801918396
:10310000808390E080E0DFCFCF93DF93EA01FC0182
:10311000E60FF71F64817581868197814381A8DF5F
:10312000811109C082E090E09983888384EF9FEF4A
:10313000DF91CF91089581E090E09983888390E0BA
:1031400080E0F6CFECE4F5E040815181628173814B
:10315000480F511D611D711D40835183628373832C
:103160000895CF93C0914B054C2F50E060914C05D2
:1031700070914D0501960E944F3A8C2FE3DF10921B
:103180004B05CF910895009799F480914C0590914B
:103190004D052FEFFB012083892B59F020914B0522
:1031A00030E02F5F3F4F2417350719F4CB01D9CFFB
:1031B00060CC0895009799F480914C0590914D054D
:1031C0002FEFFB012083892B59F020914B0530E034
:1031D0002F5F3F4F2417350719F4CB01C2CF49CCDD
:1031E000089523E1AC01249FC001259F900D112477
:1031F000E0915505F0915605E80FF91F23813481C0
:103200002250310981E02230310508F080E0089534
:103210000F931F93CF93DF9300915705109158059B
:10322000D0E0C0E080E00C171D0749F491E0811167
:1032300090E0892FDF91CF911F910F910895811117
:10324000F5CFCE01CEDF2196EECFA0915505B091FE
:103250005605109729F1209157053091580582178E
:103260009307F0F453E1589F9001599F300D1124BA
:10327000A20FB31FED91FC911197309789F0129630
:103280008C91681768F48DE0689FE00DF11D1124A2
:1032900080819181892B21F081E09281491708F08A
:1032A00080E008959C0143E1429FC001439F900D3F
:1032B0001124E0915505F0915605E80FF91F83851B
:1032C000823091F481E090E06581768140918902BD
:1032D00050918A026417750711F490E080E0892B01
:1032E00019F081E0232B09F080E00895FC01A08112
:1032F000B1818DE0689FA00DB11D112413964D91F1
:103300005C9185859685489F9001499F300D589F17
:10331000300D1124C9010196611103C0478144FD9C
:1033200004960895EF92FF920F931F93CF93DF932C
:10333000EA01FC01E60FF71F02811381E480F580AA
:103340004F2D6E2DC80181DF81110DC082E090E00C
:10335000998388838EEF9FEFDF91CF911F910F911B
:10336000FF90EF900895C8013CDF882339F082E098
:1033700090E09983888388EF9FEFEECF10939002BF
:1033800000938F02E0929102F092920281E090E02D
:103390009983888390E080E0DFCFCF92DF92EF9235
:1033A000FF920F931F93CF93DF937A01EC01C60F27
:1033B000D71FC0908F02D09090020091910210917F
:1033C0009202412F602FC60140DF811110C082E0C0
:1033D00090E0F701918380838AEF9FEFDF91CF9197
:1033E0001F910F91FF90EF90DF90CF900895C6014D
:1033F000F8DE882341F082E090E0F701918380833A
:1034000088EF9FEFEBCF4C815D816E817F819A8148
:1034100089818F3F41F082E090E0F70191838083C2
:103420008EEF9FEFDBCFE3E1EC9D9001ED9D300D42
:103430001124E0915505F0915605E20FF31F01901C
:10344000F081E02D2DE0029FE00DF11D112401908F
:10345000F081E02D27E0129FE00DF11D1124808303
:1034600091838B81828343835483658376831F5F3B
:103470001093920281E090E0F7019183808390E0C5
:1034800080E0ACCFEF92FF920F931F93CF93DF9327
:103490007A018C01060F171FC0915505D091560572
:1034A000209781F021E030E0F80182819381409102
:1034B0005705509158058417950710F030E020E02B
:1034C000232B71F482E090E0F701918380838EEFEB
:1034D0009FEFDF91CF911F910F91FF90EF90089593
:1034E00043E1489F9001499F300D1124C20FD31F23
:1034F00078DE882341F082E090E0F70191838083B9
:1035000088EF9FEFE6CFF80124813581203831051F
:10351000C8F687818111D6CF4181842F90E08F7EBC
:10352000009741F082E090E0F7019183808386EF7D
:103530009FEFCFCF4F833E832D8326812887198627
:10354000223010F421E0288721E030E0F7013183B8
:103550002083BFCF88E090E0FA019183808390E0E0
:1035600080E00895FB018FEF808381E181838FEFFD
:103570009FEF9383828380E890E095838483168213
:1035800017820895FB018FEF808391E091838283FE
:103590009383848384E3858381E090E097838683AB
:1035A000089582E090E0FA019183808380EF9FEF9D
:1035B0000895DF92EF92FF920F931F93CF93DF93C3
:1035C000EA01FC01E60FF71F8181813071F082E092
:1035D00090E0998388838FEF9FEFDF91CF911F91C8
:1035E0000F91FF90EF90DF90089582819381D480B6
:1035F0002581E680F780009155051091560501154B
:10360000110539F482E090E0998388838CEF9FEF75
:10361000E4CF40915705509158058417950738F02D
:1036200082E090E0998388838EEF9FEFD6CF892B3D
:1036300039F082E090E09983888386EF9FEFCDCFC9
:103640008D2D8D7FB1F72130A1F781E0D11006C01B
:1036500091E0E916F10431F080E004C0E2E0EE16FA
:10366000F104D0F3882329F390E080E0BADD8823C9
:1036700039F082E090E09983888388EF9FEFADCFA7
:10368000F801D38681E08487F686E586108A17865E
:1036900081E090E09983888390E080E09ECF4DE0C8
:1036A00050E06CEE72E04FCA8F929F92BF92CF9221
:1036B000DF92EF92FF920F931F93CF93DF93EA0174
:1036C000FC01E60FF71F828193810481B580E091B0
:1036D0005505F0915605309791F482E090E099837A
:1036E00088838CEF9FEFDF91CF911F910F91FF9017
:1036F000EF90DF90CF90BF909F908F900895209192
:103700005705309158058217930738F082E090E012
:10371000998388838EEF9FEFE6CF23E1289F600196
:10372000299FD00C1124EC0DFD1DE080F180E114E7
:10373000F10499F28281081748F78DE0089F800113
:103740001124E00EF11EF70180819181892B29F669
:10375000BB20E1F2F7E0BF9E40011124C4010E94AA
:103760008F27F70191838083E0915505F0915605ED
:10377000EC0DFD1D0190F081E02DE00FF11F808127
:103780009181009739F482E090E0998388838DEFEE
:103790009FEFA9CFA40170E060E00E94583A8091A9
:1037A000550590915605C80ED91EF601808191816C
:1037B000080F191FF801B28281E090E09983888395
:1037C00090E080E090CFAF92BF92CF92DF92FF92D5
:1037D0000F931F93CF93DF93EA01FC01E60FF71FCE
:1037E00082819381F4800091550510915605011551
:1037F000110581F482E090E0998388838CEF9FEF3C
:10380000DF91CF911F910F91FF90DF90CF90BF90EC
:10381000AF9008952091570530915805821793076E
:1038200038F082E090E0998388838EEF9FEFE8CFB5
:103830002FEF2F0D2C3FA8F723E1289F6001299F30
:10384000D00C11240C0D1D1DF80180819181892B54
:1038500089F6FDE0FF9E50011124C5010E948F27CB
:10386000F80191838083E0915505F0915605EC0DA8
:10387000FD1D80819181009739F482E090E0998369
:1038800088838DEF9FEFBCCFA50170E060E00E94C0
:10389000583AE0915505F0915605EC0DFD1DF28268
:1038A00081E090E09983888390E080E0A9CFCF9277
:1038B000DF92EF92FF920F931F93CF93DF93860FC8
:1038C000971FFC0102811381809155059091560547
:1038D000892B81F082E090E0FA01918380838CEF64
:1038E0009FEFDF91CF911F910F91FF90EF90DF90AD
:1038F000CF900895C801B0E0A0E00197A109B109F7
:103900008F3F9F4FA105B10540F082E090E0FA01A2
:10391000918380838EEF9FEFE4CF7A0183E1809FD4
:103920006001819FD00C1124C6010E948F27EC01F9
:10393000009741F482E090E0F701918380838DEF5E
:103940009FEFCFCFA60170E060E00E94583AD0937D
:103950005605C0935505109358050093570590E000
:1039600080E02FEF3FEF41E061E070E080179107CA
:1039700041F481E090E0F7019183808390E080E062
:10398000B0CF3A8B298B1B864C877E876D87188A30
:103990001F8601966396EACFEF92FF921F93CF9313
:1039A000DF93EC0110E0F12CE12C6A811617B0F0E6
:1039B00083E0689FB0011124AE014F5E5F4FC701E5
:1039C0000E94F427009721F02FEF3FEF3A8B298BCD
:1039D000DF91CF911F91FF90EF900895612FCE015D
:1039E00085DC61E070E00E943C26E816F90608F4E8
:1039F0007C011F5FDACFF894209153053091540574
:103A000081E02115310509F080E0232B09F078943D
:103A100008952F923F924F925F926F927F928F9272
:103A20009F92AF92BF92CF92DF92EF92FF920F934D
:103A30001F93CF93DF933C01660E771EF3018281C3
:103A400093814C01B12CA12CC0915505D091560504
:103A5000209769F021E030E060915705709158059A
:103A60008617970710F030E020E0232BD1F482E096
:103A700090E0FA01918380838EEF9FEFDF91CF91E9
:103A80001F910F91FF90EF90DF90CF90BF90AF907C
:103A90009F908F907F906F905F904F903F902F906E
:103AA00008958092930290929402A0929502B0920F
:103AB000960263E1689F9001699F300D1124C20F47
:103AC000D31FF3018181833040F082E090E0FA015E
:103AD0009183808386EF9FEFD1CF2A012B813C8198
:103AE000232BF1F4288139819F8191FF2EC0232B54
:103AF00009F46FC020915A059A81422F490F55272A
:103B0000551FBA0141E050E06138710514F050E0F2
:103B100040E0452B09F45DC02A87920F90935A0527
:103B20008150823008F481C066DF882309F4D8C050
:103B3000F3018181813009F48DC008F47BC08230AB
:103B400009F4C6C090E080E0ADC0232B09F441C069
:103B5000209159059A81E22FE90FFF27FF1F41E0CD
:103B600050E0ED3FF10514F050E040E0452B89F1C5
:103B70002A87920F90935905D3CFA081B181A20FCC
:103B8000B31F11966C91060F111D0196295F3F4FCF
:103B90008417950794F38D859E85089F1001099FD2
:103BA000300C189F300C1124C114D104D1F48F8132
:103BB00084FF17C00E948A26F5E02F0E311C21E0F9
:103BC0008215930508F420E0A701435F5F4F2111A0
:103BD0000EC082E090E0F2019183808387EF9FEF37
:103BE0004DCF0E948A262FEF221A320AE8CF888111
:103BF0009981E80EF91EF70114830383FFEFCF1AB2
:103C0000DF0A7A018A818C151D0409F00CF48CCF2F
:103C1000E881F981EE0DFF1D428150E030E020E0A7
:103C200010E000E090E080E0B3CFF12CE12CD12C4B
:103C3000C12CE8CF81E090E09C838B83E9DA882374
:103C400009F480CF81E090E00E94851580E40E9415
:103C5000931578CF89899A89019661F083E090E085
:103C60009C838B8382E090E00E94851580E40E9413
:103C70008D1568CF8D819E812091890230918A02B5
:103C800082179307D1F460918D0270918E02AE017C
:103C90004F5E5F4F80918B0290918C020E9413299E
:103CA0000097E1F2789422E030E0F2013183208342
:103CB000892B99F08DEF9FEFE1CE89288A288B28F8
:103CC00069F6029758F6CE0167DE188A1F86E8CF9C
:103CD00082E090E09C838B8335CF90E080E0CECE75
:103CE00082E090E0F2019183808385EF9FEFC6CE62
:103CF0008F929F92AF92BF92CF92DF92EF92FF92FC
:103D00000F931F93CF93DF93EA018C01060F171FC8
:103D1000F8018181833098F082E090E09983888374
:103D200086EF9FEFDF91CF911F910F91FF90EF9062
:103D3000DF90CF90BF90AF909F908F90089580912B
:103D4000550590915605892B61F081E090E0209116
:103D5000570530915805232B11F490E080E0892B12
:103D600039F482E090E0998388838EEF9FEFDACF79
:103D700042DE882309F4E0C0F8018181813009F432
:103D800096C0E8F0823099F420915705309158059B
:103D9000E0915505F091560590E080E041E050E05B
:103DA0002817390709F0BEC033DA811117C078949B
:103DB00081E090E09983888390E080E0B3CF209108
:103DC000570530915805E0915505F091560590E062
:103DD00080E041E050E02817390741F481E090E0AD
:103DE0000E94851580E40E949315E1CF6381748160
:103DF000672B11F05483438301967396ECCFE091C7
:103E00005505F0915605E00FF11F238134812230D2
:103E10003105D9F4218932892F3F3F4FB1F42581F3
:103E200036814091890250918A022417350761F545
:103E3000AF014F5E5F4F60918D0270918E02809155
:103E40008B0290918C020E941329EFEFCE1ADE0AAA
:103E5000EE0AFE0A0D5E1F4F40915705509158051E
:103E600070E060E0C416D506E606F70644F5009754
:103E700031F27894892B09F49BCF82E090E099830A
:103E800088838DEF9FEF4ECFC114D104E104F1047C
:103E9000E1F622303105C8F6CF017EDDE09155050F
:103EA000F0915605E00FF11F108A1786CECF10E073
:103EB00000E090E080E0C12CD12C7601CDCF0097BE
:103EC000C1F610E000E0812C912C540183E0E82E33
:103ED000F12C1AC0E0915505F0915605E00FF11F45
:103EE00083819481029749F4F482E38282E090E036
:103EF0000E94851580E40E948D15FFEF8F1A9F0A9E
:103F0000AF0ABF0A0D5E1F4F80915705909158056B
:103F1000B0E0A0E088169906AA06BB06DCF290E0A5
:103F200080E0A7CF638174816230710511F45483FE
:103F300043830196739634CF82E090E0998388831F
:103F400085EF9FEFEFCE0097B9F48FEFFB018083F1
:103F5000209193023091940243E1429FC001439F1C
:103F6000900D1124E0915505F0915605E80FF91FC9
:103F70008285FB01818308950C94391588E090E0D7
:103F8000FA019183808390E080E0089510925405B7
:103F900010925305E5E5F5E086E0DF011D928A9574
:103FA000E9F78FE49BE190935205809351050895C2
:103FB000809151059091520508952F923F924F9212
:103FC0005F926F927F928F929F92AF92BF92CF92A9
:103FD000DF92EF92FF920F931F93CF93DF93CDB7B2
:103FE000DEB72F970FB6F894DEBF0FBECDBFF894A3
:103FF000E0915305F09154053196F0935405E09308
:10400000530578944090550550905605411451043D
:1040100009F40CC2E0915705F0915805EF2B09F413
:1040200005C22D8749875A876B877C8798878F833E
:104030001201B12CA12C10E000E080915705909165
:104040005805A816B90618F40115110529F1F894B8
:104050008091530590915405019790935405809356
:1040600053057894C8012F960FB6F894DEBF0FBEA3
:10407000CDBFDF91CF911F910F91FF90EF90DF9017
:10408000CF90BF90AF909F908F907F906F905F90F8
:104090004F903F902F9008957101E418F508D101D9
:1040A00017968C91179781FD54C013968D919C9112
:1040B0001497039709F04DC015968D919C91EF814F
:1040C000F8858E179F0709F044C0B50190E080E0A5
:1040D0007FD48A8320915505309156053D832C83EA
:1040E0003D85332309F44CC04C815D81452B09F497
:1040F0009AC18091570590915805A816B90608F005
:1041000092C1C501CFD88823E9F06C817D816E0D05
:104110007F1D7D836C83DB011F968D919C91892B84
:1041200089F0D12CC12CF12CE12CAC81BD811296EF
:104130008C9112978E151F0409F094F450961C92DE
:104140001E921F972A81222321F0B50190E080E082
:1041500041D43FEFA31AB30A43E1240E311C6DCFC3
:10416000AC81BD81ED91FC91EC0DFD1D85819681A9
:104170000FD7BFEFEB1AFB0AEDE0CE0ED11CD5CF67
:10418000EC81FD81309709F44EC1809157059091E3
:104190005805A816B90608F046C1EE0DFF1DFF87A9
:1041A000EE87C5017FD88B83882339F1AE85BF8523
:1041B0001F968D919C915097019621E01D964D91EF
:1041C0005C918417950709F020E02E831982712CE9
:1041D00010E000E0AE85BF8512968C91781608F449
:1041E0005DC0EE85FF85878590890196658576851A
:1041F0000E94F839908B8787A5CFB1E0BE83E6CFC8
:10420000992493946BC08BD6F6019683858382C0E4
:10421000D601ED90FC90B7E06B9EE00CF11C1124F0
:10422000F7016381748180818F3F61F121E030E08B
:1042300002C0220F331F8A95E2F7C901092E000C34
:10424000AA0BBB0BFB0140815181628173818423E6
:104250009523A623B72321E0892B8A2B8B2B09F4E6
:1042600020E0D4012C93D70111968C91F60123857F
:104270003485820F932F911D880E991E1486138604
:1042800063949BC0418150E0C4010E944F3AEBCF40
:10429000998206EF1FEFC5C01982C3C0F981F111E1
:1042A000A0CFEDE07E9E70011124AE85BF85CD903C
:1042B000DC90CE0CDF1C15D49D838C83BB81BB238B
:1042C00009F49ECF81E0EE85FF8527853089232B79
:1042D00009F080E0982E882309F458C0672D8E8558
:1042E0009F8504D8D60118969C938E93179761E00A
:1042F00070E0C2D4EE85FF85218932892F3F3207D5
:1043000009F481CFBC01C901CFD7D60116969C9381
:104310008E931597D60115968D919C9116970097BF
:1043200009F4B6CFEC81FD818E0F9F1F1A969C93E6
:104330008E931997AE85BF85ED91FC911197EE0E86
:10434000FF1EF70121853285148613861A968C91FB
:10435000870DD9018D93711016C0EE85FF85878179
:1043600084FF11C049855A856B857C85F90141839D
:10437000528363837483F701838594850496A80F21
:10438000B91F14861386F701B287A187D601159647
:104390008D919C911697892B09F443C0EE85FF857A
:1043A000258136818091890290918A0228173907E8
:1043B00079F019968D909C90612CD60112968C9173
:1043C0001297681608F424CF1A969C928E92199729
:1043D000BE81BB2309F460CF61E070E0F601878104
:1043E00090854AD4D6011796ED90FC9018971596B3
:1043F0004D915C91E1E0F0E0BA81BB2311F0F0E077
:10440000E0E00C811D819C01B501882799278E1B56
:104410009F0B6AD38C01892B21F0F601858196814F
:10442000B7D57394D7CE0FEF1FEF8CCE10E000E01E
:104430000ECE2F923F924F925F926F927F928F9209
:104440009F92AF92BF92CF92DF92EF92FF920F9323
:104450001F93CF93DF93809155059091560510E0FF
:1044600000E0892BA9F0C7DA0AEF1FEF882381F05B
:104470002090570530905805C0915505D0915605AC
:10448000D12CC12C10E000E02C143D04A9F4789448
:10449000C801DF91CF911F910F91FF90EF90DF90B6
:1044A000CF90BF90AF909F908F907F906F905F90D4
:1044B0004F903F902F900895C6010E945219882373
:1044C00009F18B819C810397E9F48F859889892B69
:1044D000C9F0B60190E080E07BD221E030E0882393
:1044E00011F030E020E044245524421A530AB12C44
:1044F000A12C912C812C8A818815190409F038F49B
:10450000188A1F864FEFC41AD40A6396BDCFE8817C
:10451000F981EA0DFB1D85819681892BA1F161E06E
:1045200070E087819085A8D33C01DBD28C01E881C3
:10453000F981EA0DFB1D8185928525813681200F49
:10454000311FAC01421B530B9A0147815085421B1E
:10455000530B70E060E00E94583AE881F981EA0D5F
:10456000FB1DE780F084458156819301B601C201AD
:10457000BBD28C01892B39F0E881F981EA0DFB1D52
:104580008581968105D55FEF851A950A8DE0A80E85
:10459000B11CB1CF30CA789408952F923F924F92B8
:1045A0005F926F927F929F92AF92BF92CF92DF9273
:1045B000EF92FF920F931F93CF93DF9300D000D021
:1045C000CDB7DEB700915505109156059924939407
:1045D0000115110509F43EC0A0905705B09058058B
:1045E0000ADA982E8823B1F11092560510925505DB
:1045F00010925805109257051092590510925A05BD
:104600008FEF9FEFDC018093930290939402A0932D
:104610009502B093960278947FD31E830D83C12CAC
:10462000D12C7601C501B0E0A0E089839A83AB83E9
:10463000BC8322242A94322C89819A81AB81BC814B
:10464000C816D906EA06FB06F4F0C801A1D480E436
:104650000E949315892D26960FB6F894DEBF0FBEE3
:10466000CDBFDF91CF911F910F91FF90EF90DF9021
:10467000CF90BF90AF909F907F906F905F904F9042
:104680003F902F900895AD81BE8115968D919C919C
:1046900016972091890230918A0282179307D1F4EC
:1046A00051968D919C91EED5ED81FE818081918115
:1046B000B12CA12C412C512C3201892B89F5BFEF53
:1046C000CB1ADB0AEB0AFB0AED81FE817396FE83AF
:1046D000ED83B2CFC114D104E104F10429F70297AC
:1046E00018F7ED81FE81818992898F3F980709F043
:1046F00029D5AD81BE8152963C922E925197D4CF4E
:104700008A0D9B1DDC018D919C91009709F040D48E
:10471000BFEF4B1A5B0A6B0A7B0AEDE0AE0EB11CD1
:10472000AD81BE818D919C91119712964C9150E074
:1047300070E060E044165506660677060CF328D450
:10474000BECFCF93DF93EA0128DF811109C082E059
:1047500090E09983888385EF9FEFDF91CF91089553
:1047600081E090E00E94851581E090E09983888344
:1047700090E080E0F2CF11DF1092520510925105C7
:10478000089542E050E06AE373E00C94A315FF92B1
:104790000F931F93CF93DF938A01EC01C60FD71FAE
:1047A000F980B9D20897F816190671F068F082E01E
:1047B00090E0F801918380838EEF9FEFDF91CF919E
:1047C0001F910F91FF9008956C817D818E819F8153
:1047D0004B810E943818811108C082E090E0F801F6
:1047E0009183808384EF9FEFE9CFF9800E94331893
:1047F0004F2D50E0BE01685F7F4F0E944F3A898184
:104800000E94A21881E090E0F8019183808390E0FB
:1048100080E0D4CFDF92EF92FF920F931F93CF935C
:10482000DF938A01EC01C60FD71F0E9433187C0169
:10483000D98071D2DD2059F0029721E030E0D816FE
:10484000190619F010F030E020E0232B79F482E013
:1048500090E0F801918380838EEF9FEFDF91CF91FD
:104860001F910F91FF90EF90DF900895EF2841F492
:1048700082E090E0F8019183808384EF9FEFEECF98
:10488000F9800E9433184F2D50E0BE016E5F7F4FBC
:104890000E944F3A89810E94A21881E090E0F801BD
:1048A0009183808390E080E0D9CF81EC93E2909374
:1048B0005C0580935B05089580915B0590915C0594
:1048C00008950895FC0111821082938382830895D4
:1048D000DB011D921C92DC011296ED91FC91139765
:1048E0007183608313967C936E9312970895FC01F5
:1048F00080819181DB018D939C93A081B181109780
:1049000041F08D919C9191838083892B11F4F383E5
:10491000E2830895FC0180819181DB018D939C935A
:10492000892B11F473836283718360830895FC0182
:1049300011821082938382830895CF93DF931F9215
:104940001F92CDB7DEB71A821982F894BE016F5F4D
:104950007F4F82E695E0CBDF89819A81009709F04D
:1049600017D389819A81892B89F7BE016F5F7F4FA9
:1049700086E695E0BCDF89819A81009709F008D32B
:1049800089819A81892B89F778940F900F90DF9114
:10499000CF910895CF93DF931F921F92CDB7DEB7CB
:1049A0001A821982F894BE016F5F7F4F8EE595E001
:1049B0009EDF89819A81009709F0EAD289819A81E4
:1049C000892B89F778940F900F90DF91CF910895FC
:1049D00081E0089590E080E00895EF92FF920F93B8
:1049E0001F93CF93DF931F921F92CDB7DEB71A822A
:1049F000198280915D0507EF1FEF8823A1F1F894DC
:104A0000BE016F5F7F4F86E695E071DF7894898104
:104A10009A81EE24E394F12C892B51F4F894BE0191
:104A20006F5F7F4F82E695E062DF7894F12CE12C96
:104A300089819A810EEF1FEF0097A9F0FC01428156
:104A4000538164E070E076D68C01892B61F0F89494
:104A500069817A81C701880F991F880F991F8E5924
:104A60009A4F58DF7894C8010F900F90DF91CF9143
:104A70001F910F91FF90EF9008950F931F93CF9385
:104A8000DF9300D01F92CDB7DEB71C821B821A8243
:104A9000198280915D0507EF1FEF8823C1F0AE01F9
:104AA0004D5F5F4F64E070E0CE010196B6D68C0199
:104AB000892B69F4E981FA818B819C8193838283BC
:104AC000F89469817A818EE595E002DF7894C801D7
:104AD0000F900F900F900F90DF91CF911F910F913A
:104AE0000895BBD7049608958F929F92AF92BF927C
:104AF000CF92DF92EF92FF920F931F93CF93DF93AA
:104B00001F921F92CDB7DEB71A821982BC016F5F68
:104B10007F4F6330710598F0AA24AA94BA2CC5017E
:104B20000F900F90DF91CF911F910F91FF90EF9019
:104B3000DF90CF90BF90AF909F908F9008954115D8
:104B4000510551F3480159018A016C01CADF8815EA
:104B5000990511F7E114F104F9F28E0D9F1DA816C5
:104B6000B906D0F280915D058823F1F0F894B50183
:104B7000645071099701AE014F5F5F4FC801049601
:104B8000E1D65C01892B71F489819A81F8019383C4
:104B90008283C601880F991F880F991FB8018E590B
:104BA0009A4F96DE7894BBCF87EFA82EBB24BA9499
:104BB000B6CFAF92BF92CF92DF92EF92FF920F9358
:104BC0001F93CF93DF931F921F92CDB7DEB71A8248
:104BD0001982892B09F047C06115710509F443C09A
:104BE0004115510509F43FC02115310509F43BC0B9
:104BF00001151105C1F180915D058823B9F1790195
:104C00006A015B01F894BE016F5F7F4F8EE595E00E
:104C10006EDE789489819A81009759F1DC011296B1
:104C20006D917C91A8010496A6D68C01E981FA8148
:104C3000D501ED93FC93828193810496F6019183D3
:104C400080834FDFD7018D939C93C8010F900F9005
:104C5000DF91CF911F910F91FF90EF90DF90CF9058
:104C6000BF90AF9008950FEF1FEFEFCF07EF1FEF4B
:104C7000ECCF0EEF1FEFE9CFCF93DF93EC01672B63
:104C800071F4F4D68C179D0760F0E7D62496C80F10
:104C9000D91FE6D68C0F9D1FDF91CF910895E3D6E3
:104CA000F1CF90E080E0F8CF0F931F93CF93DF9385
:104CB00020915D0521112BC08B01EC0182E695E06E
:104CC00001DE86E695E0FEDD8EE595E0FBDD97D022
:104CD0000097C1F4CBD670E060E0CEDF47E952E048
:104CE00062E070E081D1009769F480919702909121
:104CF0009802CED6B801CE0103D5009719F421E071
:104D000020935D05DF91CF911F910F91089584EF5E
:104D10009FEFF8CFA8C6AAC6CF93DF93AAD6EC011F
:104D2000892B11F40ADE36DECE01DF91CF91089592
:104D3000CF93DF939ED6EC01892B09F4FEDDCE01E3
:104D4000DF91CF91089580919702909198020895F4
:104D5000CF93DF9380915D05D0E0C0E08823D1F050
:104D60009CD6EC01892BB1F4E8DD14DE809197022A
:104D700090919802E7D1E8D2EC01892B59F482E6B0
:104D800095E0D5DD86E695E0D2DD8EE595E0CFDDD8
:104D900010925D05CE01DF91CF910895EF92FF92C1
:104DA0000F931F93CF93DF93EC017A018B010F5F79
:104DB0001F4F0E9DA0010F9D500D1E9D500D1124E3
:104DC00070E060E00E94583A90E080E0F0E0E0E0BF
:104DD0002FEFE816F90639F4DF91CF911F910F916B
:104DE000FF90EF9008951A8219822883309711F06E
:104DF000D283C1830196FE01C00FD11FEACFCF92AB
:104E0000DF92EF92FF920F931F93CF93DF9303EB09
:104E100017E00C7F43E050E069E972E08FE992E02F
:104E20001CD489E9E82E82E0F82E9FE9C92E92E091
:104E3000D92ECAEAD8E0D7014D915D917D01F601E6
:104E4000619171916F01198308835D834C835B834A
:104E50004A837F836E839B012F5F3F4F249FC00156
:104E6000259F900D349F900D1124998788870115F7
:104E7000110511F0C80192DF88859985080F191F67
:104E80002A96FFE9EF16F2E0FF06A9F6ECE6F5E058
:104E900084E492E0DF019C011D9221503040E1F753
:104EA00010926B0510926A051092C9081092C808FA
:104EB0001092CD081092CC081092CB081092CA081C
:104EC0001092CF081092CE081092D1081092D008FC
:104ED0001092D3081092D2081092D7081092D608D8
:104EE0001092D5081092D4081092D9081092D808C0
:104EF0001092DB081092DA081092A7081092A60808
:104F00001092A9081092A80890E080E0DF91CF915C
:104F10001F910F91FF90EF90DF90CF900895009731
:104F2000F1F0F894AFE9B2E0EAEAF8E030E020E02E
:104F30004D915D9148175907A8F042815381411561
:104F4000510581F08AE0829FF001839FF00D1124CA
:104F5000E655F74F80819181009759F4789490E05D
:104F600080E008952F5F3F4F3A962330310501F7D7
:104F7000F5CFDC0111966D917C9171836083415076
:104F8000510953834283FC012193CF017894089502
:104F9000009749F1DC018E91853041F4E091A80839
:104FA000F091A9083097F9F0CD0119948530D8F423
:104FB000282F30E0F8948FEF8C938AE0829FF001E5
:104FC000839FF00D1124E655F74F80819181129651
:104FD0009C938E931197B183A083828193810196D4
:104FE0009383828378940895CF92DF92EF92FF9219
:104FF0000F931F93CF93DF939C018FE695E08C7FF7
:105000004115510509F49BC02115310509F497C0DC
:105010006115710509F493C07A01AB01B9016D5FA7
:105020007F4F6C7F9B012F5F3F4F249F8001259F07
:10503000100D349F100D1124F8942091C808309160
:10504000C908232B59F42091D0083091D10821159B
:10505000310569F12017310708F058C02091D208B6
:105060003091D308232B91F42091D0083091D108AE
:10507000820F931F2091DA083091DB08211531054A
:1050800009F441C02017310708F056C07894CFEFDB
:10509000DFEF86EF9FEFF701D183C083DF91CF91E0
:1050A0001F910F91FF90EF90DF90CF900895C3E094
:1050B000D0E0C0906A05D0906B0521E432E02C1955
:1050C0003D092017310710F32AE02C9FF0012D9F96
:1050D000F00D1124E655F74F918380835583448367
:1050E000538342837783668311870087009709F093
:1050F00055DE0C0D1D1D10936B0500936A05789409
:1051000090E080E0C8CFC4E0D0E0D3CFC3E0D0E0EF
:105110002AE02C9FF0012D9FF00D1124E655F74F4A
:10512000918380835583448353834283778366834B
:10513000009729F333DEE3CFC4E0D0E0E9CF8FEF6F
:105140009FEFACCF9C010397029708F069C0F894D9
:1051500084E09AE0482F50E0241735070CF44DC046
:1051600091E08AE0829FF001839FF00D1124E655C3
:10517000F74F1182108215821482138212821782D5
:1051800016829923B1F18091C8089091C908892BA2
:10519000A9F42091D0083091D1082115310571F082
:1051A00080916A0590916B05821B930B90936B0520
:1051B00080936A051092D1081092D0088091D2088D
:1051C0009091D308892BA9F42091DA083091DB085B
:1051D0002115310571F080916A0590916B05821B54
:1051E000930B90936B0580936A051092DB081092E5
:1051F000DA08789490E080E00895949FF001959FFC
:10520000F00D1124E655F74F40815181452B31F4C3
:1052100040855185452B11F481509CCF90E0A1CF62
:105220008FEF9FEF08954115510549F1009739F12E
:105230006115710521F1F8942091A6083091A70815
:10524000232BB9F42091A8083091A908232B89F4C5
:105250009093A7088093A6087093A9086093A80864
:10526000789425E030E090E080E0FA0131832083FB
:10527000089578942FEF3FEF86EF9FEFF6CF8FEFF3
:105280009FEF0895059769F4F8941092A70810927B
:10529000A6081092A9081092A808789490E080E0DF
:1052A00008958FEF9FEF08956115710519F4F0E0EF
:1052B000E0E011C08530910581F4E091A608F091FD
:1052C000A7083097A1F3CB0101961995009779F3C0
:1052D000FC0185E08193CF0108959C0123503109A1
:1052E0002230310520F72AE0289FD001299FB00DF8
:1052F0001124A655B74F2D913C911197232BB9F24C
:1053000016962D913C9117972617370780F2F8943F
:1053100012962D913C9113972115310529F0ED91AD
:10532000FC911197309711F47894C1CF418152814B
:1053300011965C934E932150310913963C932E9312
:10534000129781937894C7CFE0EBF7E086EFDF0107
:105350001D928A95E9F7ECE6F5E084E492E0DF013E
:105360009C011D9221503040E1F710926B05109284
:105370006A05EAEAF8E082E3DF011D928A95E9F71F
:10538000E6EAF8E084E0DF011D928A95E9F790E013
:1053900080E00895CF93DF93C091A502D091A6023B
:1053A000CF3FDC0759F45FD49093A6028093A50207
:1053B00097FF09C0D093A602C093A50284EF9FEF88
:1053C000DF91CF91089590E080E0FACF823091058F
:1053D00028F48093DC0890E080E008958FEF9FEF41
:1053E00008954F925F926F927F92AF92BF92CF9249
:1053F000DF92EF92FF920F931F93CF93DF931F9251
:105400001F92CDB7DEB71A821982009709F479C0CE
:105410006115710509F475C02091A5023091A602AD
:1054200007EF1FEF2F3F3F4F09F445C06B015C01B1
:10543000412C512C3201F12CE12C10E000E09E01B6
:105440002F5F3F4FA6014E195F09B5016E0D7F1DFD
:105450008091A5029091A6026AD4892B09F04BC0D5
:1054600089819A81009741F4E114F10429F4209193
:10547000DC08222309F442C0E80EF91EEC14FD04F6
:10548000D0F480E8481684E858068EE16806710476
:1054900020F560E070E0CB010E94EA332AE0420E82
:1054A000511C611C711C0A3F4FEF140721F0043F8F
:1054B0008FEF1807A1F4C8010F900F90DF91CF91E3
:1054C0001F910F91FF90EF90DF90CF90BF90AF9022
:1054D0007F906F905F904F90089501EF1FEF81E0F4
:1054E00090E0013F2FEF120711F090E080E0892B50
:1054F00009F4A5CFE0CF04EF1FEFDDCF0AEF1FEFD8
:10550000DACF0FEF1FEFD7CF4F925F926F927F925C
:10551000AF92BF92CF92DF92EF92FF920F931F93C1
:10552000CF93DF931F921F92CDB7DEB71A821982F5
:10553000009709F479C06115710509F475C02091CF
:10554000A5023091A60207EF1FEF2F3F3F4F09F44E
:1055500045C06B015C01412C512C3201F12CE12C36
:1055600010E000E09E012F5F3F4FA6014E195F093A
:10557000B5016E0D7F1D8091A5029091A6028AD380
:10558000892B09F04BC089819A81009741F4E1147D
:10559000F10429F42091DC08222309F442C0E80E2A
:1055A000F91EEC14FD04D0F480E4481682E4580699
:1055B0008FE06806710420F560E070E0CB010E9486
:1055C000EA332AE0420E511C611C711C0E3F4FEF62
:1055D000140721F0043F8FEF1807A1F4C8010F90C2
:1055E0000F90DF91CF911F910F91FF90EF90DF907F
:1055F000CF90BF90AF907F906F905F904F90089545
:1056000002EF1FEF81E090E0023F2FEF120711F051
:1056100090E080E0892B09F4A5CFE0CF04EF1FEFE5
:10562000DDCF0EEF1FEFDACF0FEF1FEFD7CF809157
:10563000A5029091A6028F3F980749F00CD3892BC1
:1056400049F48FEF9FEF9093A6028093A50290E01C
:1056500080E0089584EF9FEF0895CF92DF92EF925C
:10566000FF920F931F93CF93DF9321E041155105D4
:1056700009F020E04150510921112CC0DC01FB014F
:10568000D12CC12C21E022C03FEFC31AD30A7D01E7
:105690000D911D91E701EA80FB80E016F106A8F468
:1056A00020813181E280F380F182E08233832283A2
:1056B000ED90FC9011979D0122503109E901F9828A
:1056C000E88211961C930E9320E03296C416D506FC
:1056D000D8F2D2CFDF91CF911F910F91FF90EF9031
:1056E000DF90CF900895FC01680F791F90E080E073
:1056F000E617F70709F408952191820F911DF8CF5D
:105700002091DD08211113C045DE009791F410921D
:10571000E3081092E2081092E1081092E00810925B
:10572000DF081092DE0821E02093DD08089584EF61
:105730009FEF0895AF92BF92CF92DF92EF92FF92C8
:105740000F931F93CF93DF93009709F460C0463007
:10575000510508F45CC02091DD08C7EFDFEF22237C
:1057600009F449C08C01060F171FF801C080D180D1
:10577000C114D10409F44EC096012A5F3F4F42176D
:10578000530708F447C07C018091E2089091E30838
:1057900093838283B6016C5F7F4F5801A60EB71EBC
:1057A000C801A1DFF5019183808364E070E0C80146
:1057B00018DEEC01892BF9F481E090E007DEB601F8
:1057C000C80104960EDEEC01892B91F462E070E0D2
:1057D000C50107DEEC01892B59F4C701D9DB8091A3
:1057E000E2089091E30801969093E3088093E20821
:1057F00090E080E0EBDDCE01DF91CF911F910F9122
:10580000FF90EF90DF90CF90BF90AF900895CFEFD3
:10581000DFEFF1CFC9EFDFEFEECF6F927F928F9284
:105820009F92AF92BF92CF92DF92EF92FF920F932F
:105830001F93CF93DF9300D01F92CDB7DEB70097B1
:1058400009F47AC04115510509F476C02091DD08AC
:1058500007EF1FEF222309F44DC03A017B015C01E1
:1058600064E070E0CE0101964FDE8C01892B09F0D7
:1058700041C009811A810115110509F45AC0480176
:1058800086E0880E911CB701680D791D8091A702F2
:105890009091A80209DD6C01009709F450C0A7019E
:1058A00070E060E00E94583A89819A81AB81BC81A6
:1058B000EC0CFD1CF70181939193A193B1937F01AF
:1058C00081E090E083DDB801C7011EDE892B31F550
:1058D00062E070E0C701800F911F16DE8C01892BFA
:1058E000E9F490E080E072DDF501D182C082F3013D
:1058F00091828082C8010F900F900F900F90DF91DE
:10590000CF911F910F91FF90EF90DF90CF90BF90BC
:10591000AF909F908F907F906F90089590E080E07F
:1059200055DDF50111821082F30111821082C6014A
:105930002FDB09EF1FEFDECF0FEF1FEFDBCF06EFFF
:105940001FEFD8CF0097A1F04115510589F021151F
:10595000310571F0F90136966E177F0748F0DC01CA
:105960002D933C93DA01ED93FC9390E080E0089551
:105970008FEF9FEF0895AF92BF92CF92DF92EF9299
:10598000FF920F931F93CF93DF93009709F45FC0AB
:105990004115510509F45BC06530710508F457C025
:1059A0002091DD08C7EFDFEF222391F1DC01CD90DC
:1059B000DC9011971296ED91FC9196012A5F3F4F72
:1059C000C9EFDFEF2617370719F5C091DE08D09130
:1059D000DF08209749F521E030E03093DF0820937D
:1059E000DE087A018C01F093E108E093E0085601AB
:1059F000B4E0AB0EB11CB50176DE0A0D1B1DF8013B
:105A0000208131818217930729F5D701CD92DC924D
:105A1000CE01DF91CF911F910F91FF90EF90DF901A
:105A2000CF90BF90AF9008952091E0083091E108A9
:105A30002F5F3F4FCCEFDFEFE217F30790F2CBEF92
:105A4000DFEF2E173F0768F2D0E0C0E0CACFCFEFFC
:105A5000DFEFDECFC3EFDFEFDBCF84E090E0089530
:105A600082E090E008958CEF9FEF089580E290E04F
:105A700008951092E3081092E2081092E108109243
:105A8000E0081092DF081092DE0890E080E00895B0
:105A90009093A8028093A70208958091DD0888233F
:105AA00091F0C5DD009789F41092E3081092E208A6
:105AB0001092E1081092E0081092DF081092DE08C0
:105AC0001092DD08089590E080E00895009749F075
:105AD0006115710531F0FC0111821082FB01118208
